{
  "_format": "hh-sol-artifact-1",
  "contractName": "Metacar",
  "sourceName": "contracts/Metacar.sol",
  "abi": [
    {
      "inputs": [],
      "stateMutability": "nonpayable",
      "type": "constructor"
    },
    {
      "anonymous": false,
      "inputs": [
        {
          "indexed": true,
          "internalType": "address",
          "name": "owner",
          "type": "address"
        },
        {
          "indexed": true,
          "internalType": "address",
          "name": "approved",
          "type": "address"
        },
        {
          "indexed": true,
          "internalType": "uint256",
          "name": "tokenId",
          "type": "uint256"
        }
      ],
      "name": "Approval",
      "type": "event"
    },
    {
      "anonymous": false,
      "inputs": [
        {
          "indexed": true,
          "internalType": "address",
          "name": "owner",
          "type": "address"
        },
        {
          "indexed": true,
          "internalType": "address",
          "name": "operator",
          "type": "address"
        },
        {
          "indexed": false,
          "internalType": "bool",
          "name": "approved",
          "type": "bool"
        }
      ],
      "name": "ApprovalForAll",
      "type": "event"
    },
    {
      "anonymous": false,
      "inputs": [
        {
          "indexed": true,
          "internalType": "address",
          "name": "previousOwner",
          "type": "address"
        },
        {
          "indexed": true,
          "internalType": "address",
          "name": "newOwner",
          "type": "address"
        }
      ],
      "name": "OwnershipTransferred",
      "type": "event"
    },
    {
      "anonymous": false,
      "inputs": [
        {
          "indexed": true,
          "internalType": "address",
          "name": "from",
          "type": "address"
        },
        {
          "indexed": true,
          "internalType": "address",
          "name": "to",
          "type": "address"
        },
        {
          "indexed": true,
          "internalType": "uint256",
          "name": "tokenId",
          "type": "uint256"
        }
      ],
      "name": "Transfer",
      "type": "event"
    },
    {
      "inputs": [
        {
          "internalType": "address",
          "name": "recipient",
          "type": "address"
        },
        {
          "internalType": "uint256",
          "name": "amount",
          "type": "uint256"
        }
      ],
      "name": "acquire",
      "outputs": [],
      "stateMutability": "payable",
      "type": "function"
    },
    {
      "inputs": [
        {
          "internalType": "address",
          "name": "to",
          "type": "address"
        },
        {
          "internalType": "uint256",
          "name": "tokenId",
          "type": "uint256"
        }
      ],
      "name": "approve",
      "outputs": [],
      "stateMutability": "nonpayable",
      "type": "function"
    },
    {
      "inputs": [
        {
          "internalType": "address",
          "name": "owner",
          "type": "address"
        }
      ],
      "name": "balanceOf",
      "outputs": [
        {
          "internalType": "uint256",
          "name": "",
          "type": "uint256"
        }
      ],
      "stateMutability": "view",
      "type": "function"
    },
    {
      "inputs": [],
      "name": "baseTokenURI",
      "outputs": [
        {
          "internalType": "string",
          "name": "",
          "type": "string"
        }
      ],
      "stateMutability": "view",
      "type": "function"
    },
    {
      "inputs": [
        {
          "internalType": "uint256",
          "name": "tokenId",
          "type": "uint256"
        }
      ],
      "name": "getApproved",
      "outputs": [
        {
          "internalType": "address",
          "name": "",
          "type": "address"
        }
      ],
      "stateMutability": "view",
      "type": "function"
    },
    {
      "inputs": [],
      "name": "getCarPrice",
      "outputs": [
        {
          "internalType": "uint256",
          "name": "",
          "type": "uint256"
        }
      ],
      "stateMutability": "view",
      "type": "function"
    },
    {
      "inputs": [],
      "name": "getIsWhitelistActive",
      "outputs": [
        {
          "internalType": "bool",
          "name": "",
          "type": "bool"
        }
      ],
      "stateMutability": "view",
      "type": "function"
    },
    {
      "inputs": [
        {
          "internalType": "address",
          "name": "_address",
          "type": "address"
        }
      ],
      "name": "isAdmin",
      "outputs": [
        {
          "internalType": "bool",
          "name": "",
          "type": "bool"
        }
      ],
      "stateMutability": "view",
      "type": "function"
    },
    {
      "inputs": [
        {
          "internalType": "address",
          "name": "owner",
          "type": "address"
        },
        {
          "internalType": "address",
          "name": "operator",
          "type": "address"
        }
      ],
      "name": "isApprovedForAll",
      "outputs": [
        {
          "internalType": "bool",
          "name": "",
          "type": "bool"
        }
      ],
      "stateMutability": "view",
      "type": "function"
    },
    {
      "inputs": [],
      "name": "isWhitelistActive",
      "outputs": [
        {
          "internalType": "bool",
          "name": "",
          "type": "bool"
        }
      ],
      "stateMutability": "view",
      "type": "function"
    },
    {
      "inputs": [
        {
          "internalType": "address",
          "name": "_whitelistedAddress",
          "type": "address"
        }
      ],
      "name": "isWhitelisted",
      "outputs": [
        {
          "internalType": "bool",
          "name": "",
          "type": "bool"
        }
      ],
      "stateMutability": "view",
      "type": "function"
    },
    {
      "inputs": [],
      "name": "name",
      "outputs": [
        {
          "internalType": "string",
          "name": "",
          "type": "string"
        }
      ],
      "stateMutability": "view",
      "type": "function"
    },
    {
      "inputs": [],
      "name": "owner",
      "outputs": [
        {
          "internalType": "address",
          "name": "",
          "type": "address"
        }
      ],
      "stateMutability": "view",
      "type": "function"
    },
    {
      "inputs": [
        {
          "internalType": "uint256",
          "name": "tokenId",
          "type": "uint256"
        }
      ],
      "name": "ownerOf",
      "outputs": [
        {
          "internalType": "address",
          "name": "",
          "type": "address"
        }
      ],
      "stateMutability": "view",
      "type": "function"
    },
    {
      "inputs": [],
      "name": "renounceOwnership",
      "outputs": [],
      "stateMutability": "nonpayable",
      "type": "function"
    },
    {
      "inputs": [
        {
          "internalType": "address",
          "name": "from",
          "type": "address"
        },
        {
          "internalType": "address",
          "name": "to",
          "type": "address"
        },
        {
          "internalType": "uint256",
          "name": "tokenId",
          "type": "uint256"
        }
      ],
      "name": "safeTransferFrom",
      "outputs": [],
      "stateMutability": "nonpayable",
      "type": "function"
    },
    {
      "inputs": [
        {
          "internalType": "address",
          "name": "from",
          "type": "address"
        },
        {
          "internalType": "address",
          "name": "to",
          "type": "address"
        },
        {
          "internalType": "uint256",
          "name": "tokenId",
          "type": "uint256"
        },
        {
          "internalType": "bytes",
          "name": "_data",
          "type": "bytes"
        }
      ],
      "name": "safeTransferFrom",
      "outputs": [],
      "stateMutability": "nonpayable",
      "type": "function"
    },
    {
      "inputs": [
        {
          "internalType": "address",
          "name": "operator",
          "type": "address"
        },
        {
          "internalType": "bool",
          "name": "approved",
          "type": "bool"
        }
      ],
      "name": "setApprovalForAll",
      "outputs": [],
      "stateMutability": "nonpayable",
      "type": "function"
    },
    {
      "inputs": [
        {
          "internalType": "string",
          "name": "_baseTokenURI",
          "type": "string"
        }
      ],
      "name": "setBaseTokenURI",
      "outputs": [],
      "stateMutability": "nonpayable",
      "type": "function"
    },
    {
      "inputs": [],
      "name": "startWhitelist",
      "outputs": [],
      "stateMutability": "nonpayable",
      "type": "function"
    },
    {
      "inputs": [],
      "name": "stopWhitelist",
      "outputs": [],
      "stateMutability": "nonpayable",
      "type": "function"
    },
    {
      "inputs": [
        {
          "internalType": "bytes4",
          "name": "interfaceId",
          "type": "bytes4"
        }
      ],
      "name": "supportsInterface",
      "outputs": [
        {
          "internalType": "bool",
          "name": "",
          "type": "bool"
        }
      ],
      "stateMutability": "view",
      "type": "function"
    },
    {
      "inputs": [],
      "name": "symbol",
      "outputs": [
        {
          "internalType": "string",
          "name": "",
          "type": "string"
        }
      ],
      "stateMutability": "view",
      "type": "function"
    },
    {
      "inputs": [
        {
          "internalType": "uint256",
          "name": "tokenId",
          "type": "uint256"
        }
      ],
      "name": "tokenURI",
      "outputs": [
        {
          "internalType": "string",
          "name": "",
          "type": "string"
        }
      ],
      "stateMutability": "view",
      "type": "function"
    },
    {
      "inputs": [],
      "name": "totalCarsToMint",
      "outputs": [
        {
          "internalType": "uint256",
          "name": "",
          "type": "uint256"
        }
      ],
      "stateMutability": "view",
      "type": "function"
    },
    {
      "inputs": [
        {
          "internalType": "address",
          "name": "from",
          "type": "address"
        },
        {
          "internalType": "address",
          "name": "to",
          "type": "address"
        },
        {
          "internalType": "uint256",
          "name": "tokenId",
          "type": "uint256"
        }
      ],
      "name": "transferFrom",
      "outputs": [],
      "stateMutability": "nonpayable",
      "type": "function"
    },
    {
      "inputs": [
        {
          "internalType": "address",
          "name": "newOwner",
          "type": "address"
        }
      ],
      "name": "transferOwnership",
      "outputs": [],
      "stateMutability": "nonpayable",
      "type": "function"
    },
    {
      "inputs": [
        {
          "internalType": "address",
          "name": "_addressToWhitelist",
          "type": "address"
        }
      ],
      "name": "whitelistAddress",
      "outputs": [],
      "stateMutability": "nonpayable",
      "type": "function"
    }
  ],
  "bytecode": "0x60806040526001600c60006101000a81548160ff0219169083151502179055503480156200002c57600080fd5b506040518060400160405280600881526020017f4d657461636172730000000000000000000000000000000000000000000000008152506040518060400160405280600381526020017f43415200000000000000000000000000000000000000000000000000000000008152508160009080519060200190620000b1929190620003a1565b508060019080519060200190620000ca929190620003a1565b505050620000ed620000e1620002d360201b60201c565b620002db60201b60201c565b600160078190555060405180602001604052806000815250600b90805190602001906200011c929190620003a1565b50600160096000738626f6940e2eb28930efb4cef49b2d1f2c9c119973ffffffffffffffffffffffffffffffffffffffff1673ffffffffffffffffffffffffffffffffffffffff16815260200190815260200160002060006101000a81548160ff02191690831515021790555060016009600073fdb2c1f70046e90c5607f6403f21bb7f2662a11773ffffffffffffffffffffffffffffffffffffffff1673ffffffffffffffffffffffffffffffffffffffff16815260200190815260200160002060006101000a81548160ff0219169083151502179055506001600a6000738626f6940e2eb28930efb4cef49b2d1f2c9c119973ffffffffffffffffffffffffffffffffffffffff1673ffffffffffffffffffffffffffffffffffffffff16815260200190815260200160002060006101000a81548160ff0219169083151502179055506001600a600073fdb2c1f70046e90c5607f6403f21bb7f2662a11773ffffffffffffffffffffffffffffffffffffffff1673ffffffffffffffffffffffffffffffffffffffff16815260200190815260200160002060006101000a81548160ff021916908315150217905550620004b6565b600033905090565b6000600660009054906101000a900473ffffffffffffffffffffffffffffffffffffffff16905081600660006101000a81548173ffffffffffffffffffffffffffffffffffffffff021916908373ffffffffffffffffffffffffffffffffffffffff1602179055508173ffffffffffffffffffffffffffffffffffffffff168173ffffffffffffffffffffffffffffffffffffffff167f8be0079c531659141344cd1fd0a4f28419497f9722a3daafe3b4186f6b6457e060405160405180910390a35050565b828054620003af9062000451565b90600052602060002090601f016020900481019282620003d357600085556200041f565b82601f10620003ee57805160ff19168380011785556200041f565b828001600101855582156200041f579182015b828111156200041e57825182559160200191906001019062000401565b5b5090506200042e919062000432565b5090565b5b808211156200044d57600081600090555060010162000433565b5090565b600060028204905060018216806200046a57607f821691505b6020821081141562000481576200048062000487565b5b50919050565b7f4e487b7100000000000000000000000000000000000000000000000000000000600052602260045260246000fd5b613a1e80620004c66000396000f3fe6080604052600436106101b75760003560e01c80637016ca6a116100ec578063a22cb4651161008a578063c87b56dd11610064578063c87b56dd146105d7578063d547cfb714610614578063e985e9c51461063f578063f2fde38b1461067c576101b7565b8063a22cb4651461055a578063b88d4fde14610583578063c77a339d146105ac576101b7565b80637f19c412116100c65780637f19c412146104d15780638530f848146104e85780638da5cb5b1461050457806395d89b411461052f576101b7565b80637016ca6a1461045257806370a082311461047d578063715018a6146104ba576101b7565b8063333cd5c11161015957806342842e0e1161013357806342842e0e14610396578063524513d6146103bf5780635f644da9146103ea5780636352211e14610415576101b7565b8063333cd5c1146103195780633af32abf14610330578063415665851461036d576101b7565b8063095ea7b311610195578063095ea7b31461026157806323b872dd1461028a57806324d7806c146102b357806330176e13146102f0576101b7565b806301ffc9a7146101bc57806306fdde03146101f9578063081812fc14610224575b600080fd5b3480156101c857600080fd5b506101e360048036038101906101de91906127ee565b6106a5565b6040516101f0919061321c565b60405180910390f35b34801561020557600080fd5b5061020e610787565b60405161021b9190613237565b60405180910390f35b34801561023057600080fd5b5061024b60048036038101906102469190612881565b610819565b60405161025891906131b5565b60405180910390f35b34801561026d57600080fd5b50610288600480360381019061028391906127b2565b61089e565b005b34801561029657600080fd5b506102b160048036038101906102ac91906126ac565b6109b6565b005b3480156102bf57600080fd5b506102da60048036038101906102d59190612647565b610a16565b6040516102e7919061321c565b60405180910390f35b3480156102fc57600080fd5b5061031760048036038101906103129190612840565b610a6c565b005b34801561032557600080fd5b5061032e610ae3565b005b34801561033c57600080fd5b5061035760048036038101906103529190612647565b610b5d565b604051610364919061321c565b60405180910390f35b34801561037957600080fd5b50610394600480360381019061038f9190612647565b610bb8565b005b3480156103a257600080fd5b506103bd60048036038101906103b891906126ac565b610c70565b005b3480156103cb57600080fd5b506103d4610c90565b6040516103e1919061321c565b60405180910390f35b3480156103f657600080fd5b506103ff610ca3565b60405161040c9190613559565b60405180910390f35b34801561042157600080fd5b5061043c60048036038101906104379190612881565b610cd7565b60405161044991906131b5565b60405180910390f35b34801561045e57600080fd5b50610467610d89565b6040516104749190613559565b60405180910390f35b34801561048957600080fd5b506104a4600480360381019061049f9190612647565b610d8f565b6040516104b19190613559565b60405180910390f35b3480156104c657600080fd5b506104cf610e47565b005b3480156104dd57600080fd5b506104e6610ecf565b005b61050260048036038101906104fd91906127b2565b610f49565b005b34801561051057600080fd5b50610519611271565b60405161052691906131b5565b60405180910390f35b34801561053b57600080fd5b5061054461129b565b6040516105519190613237565b60405180910390f35b34801561056657600080fd5b50610581600480360381019061057c9190612776565b61132d565b005b34801561058f57600080fd5b506105aa60048036038101906105a591906126fb565b611343565b005b3480156105b857600080fd5b506105c16113a5565b6040516105ce919061321c565b60405180910390f35b3480156105e357600080fd5b506105fe60048036038101906105f99190612881565b6113bc565b60405161060b9190613237565b60405180910390f35b34801561062057600080fd5b50610629611463565b6040516106369190613237565b60405180910390f35b34801561064b57600080fd5b5061066660048036038101906106619190612670565b6114f1565b604051610673919061321c565b60405180910390f35b34801561068857600080fd5b506106a3600480360381019061069e9190612647565b611585565b005b60007f80ac58cd000000000000000000000000000000000000000000000000000000007bffffffffffffffffffffffffffffffffffffffffffffffffffffffff1916827bffffffffffffffffffffffffffffffffffffffffffffffffffffffff1916148061077057507f5b5e139f000000000000000000000000000000000000000000000000000000007bffffffffffffffffffffffffffffffffffffffffffffffffffffffff1916827bffffffffffffffffffffffffffffffffffffffffffffffffffffffff1916145b80610780575061077f8261167d565b5b9050919050565b60606000805461079690613813565b80601f01602080910402602001604051908101604052809291908181526020018280546107c290613813565b801561080f5780601f106107e45761010080835404028352916020019161080f565b820191906000526020600020905b8154815290600101906020018083116107f257829003601f168201915b5050505050905090565b6000610824826116e7565b610863576040517f08c379a000000000000000000000000000000000000000000000000000000000815260040161085a906133b9565b60405180910390fd5b6004600083815260200190815260200160002060009054906101000a900473ffffffffffffffffffffffffffffffffffffffff169050919050565b60006108a982610cd7565b90508073ffffffffffffffffffffffffffffffffffffffff168373ffffffffffffffffffffffffffffffffffffffff16141561091a576040517f08c379a000000000000000000000000000000000000000000000000000000000815260040161091190613479565b60405180910390fd5b8073ffffffffffffffffffffffffffffffffffffffff16610939611753565b73ffffffffffffffffffffffffffffffffffffffff161480610968575061096781610962611753565b6114f1565b5b6109a7576040517f08c379a000000000000000000000000000000000000000000000000000000000815260040161099e90613339565b60405180910390fd5b6109b1838361175b565b505050565b6109c76109c1611753565b82611814565b610a06576040517f08c379a00000000000000000000000000000000000000000000000000000000081526004016109fd906134f9565b60405180910390fd5b610a118383836118f2565b505050565b6000600960008373ffffffffffffffffffffffffffffffffffffffff1673ffffffffffffffffffffffffffffffffffffffff16815260200190815260200160002060009054906101000a900460ff169050919050565b60011515600960003373ffffffffffffffffffffffffffffffffffffffff1673ffffffffffffffffffffffffffffffffffffffff16815260200190815260200160002060009054906101000a900460ff16151514610ac957600080fd5b80600b9080519060200190610adf929190612456565b5050565b60011515600960003373ffffffffffffffffffffffffffffffffffffffff1673ffffffffffffffffffffffffffffffffffffffff16815260200190815260200160002060009054906101000a900460ff16151514610b4057600080fd5b6000600c60006101000a81548160ff021916908315150217905550565b600080600a60008473ffffffffffffffffffffffffffffffffffffffff1673ffffffffffffffffffffffffffffffffffffffff16815260200190815260200160002060009054906101000a900460ff16905080915050919050565b60011515600960003373ffffffffffffffffffffffffffffffffffffffff1673ffffffffffffffffffffffffffffffffffffffff16815260200190815260200160002060009054906101000a900460ff16151514610c1557600080fd5b6001600a60008373ffffffffffffffffffffffffffffffffffffffff1673ffffffffffffffffffffffffffffffffffffffff16815260200190815260200160002060006101000a81548160ff02191690831515021790555050565b610c8b83838360405180602001604052806000815250611343565b505050565b600c60009054906101000a900460ff1681565b6000600c60009054906101000a900460ff1615610cc957667c5850872380009050610cd4565b66b1a2bc2ec5000090505b90565b6000806002600084815260200190815260200160002060009054906101000a900473ffffffffffffffffffffffffffffffffffffffff169050600073ffffffffffffffffffffffffffffffffffffffff168173ffffffffffffffffffffffffffffffffffffffff161415610d80576040517f08c379a0000000000000000000000000000000000000000000000000000000008152600401610d7790613379565b60405180910390fd5b80915050919050565b61271081565b60008073ffffffffffffffffffffffffffffffffffffffff168273ffffffffffffffffffffffffffffffffffffffff161415610e00576040517f08c379a0000000000000000000000000000000000000000000000000000000008152600401610df790613359565b60405180910390fd5b600360008373ffffffffffffffffffffffffffffffffffffffff1673ffffffffffffffffffffffffffffffffffffffff168152602001908152602001600020549050919050565b610e4f611753565b73ffffffffffffffffffffffffffffffffffffffff16610e6d611271565b73ffffffffffffffffffffffffffffffffffffffff1614610ec3576040517f08c379a0000000000000000000000000000000000000000000000000000000008152600401610eba906133d9565b60405180910390fd5b610ecd6000611b4e565b565b60011515600960003373ffffffffffffffffffffffffffffffffffffffff1673ffffffffffffffffffffffffffffffffffffffff16815260200190815260200160002060009054906101000a900460ff16151514610f2c57600080fd5b6001600c60006101000a81548160ff021916908315150217905550565b60026007541415610f8f576040517f08c379a0000000000000000000000000000000000000000000000000000000008152600401610f8690613539565b60405180910390fd5b600260078190555060008111610fda576040517f08c379a0000000000000000000000000000000000000000000000000000000008152600401610fd1906134b9565b60405180910390fd5b610fe46008611c14565b612710610ff19190613729565b811115611033576040517f08c379a000000000000000000000000000000000000000000000000000000000815260040161102a90613459565b60405180910390fd5b348161103d610ca3565b61104791906136cf565b1115611088576040517f08c379a000000000000000000000000000000000000000000000000000000000815260040161107f90613499565b60405180910390fd5b600c60009054906101000a900460ff16156111f857600181146110e0576040517f08c379a00000000000000000000000000000000000000000000000000000000081526004016110d790613319565b60405180910390fd5b60013073ffffffffffffffffffffffffffffffffffffffff166370a08231846040518263ffffffff1660e01b815260040161111b91906131b5565b60206040518083038186803b15801561113357600080fd5b505afa158015611147573d6000803e3d6000fd5b505050506040513d601f19601f8201168201806040525081019061116b91906128aa565b106111ab576040517f08c379a00000000000000000000000000000000000000000000000000000000081526004016111a2906134d9565b60405180910390fd5b6111b482610b5d565b6111f3576040517f08c379a00000000000000000000000000000000000000000000000000000000081526004016111ea906133f9565b60405180910390fd5b61123d565b600581111561123c576040517f08c379a000000000000000000000000000000000000000000000000000000000815260040161123390613519565b60405180910390fd5b5b60005b818110156112645761125183611c22565b808061125c90613845565b915050611240565b5060016007819055505050565b6000600660009054906101000a900473ffffffffffffffffffffffffffffffffffffffff16905090565b6060600180546112aa90613813565b80601f01602080910402602001604051908101604052809291908181526020018280546112d690613813565b80156113235780601f106112f857610100808354040283529160200191611323565b820191906000526020600020905b81548152906001019060200180831161130657829003601f168201915b5050505050905090565b61133f611338611753565b8383611c42565b5050565b61135461134e611753565b83611814565b611393576040517f08c379a000000000000000000000000000000000000000000000000000000000815260040161138a906134f9565b60405180910390fd5b61139f84848484611daf565b50505050565b6000600c60009054906101000a900460ff16905090565b60606113c7826116e7565b611406576040517f08c379a00000000000000000000000000000000000000000000000000000000081526004016113fd90613439565b60405180910390fd5b6000611410611e0b565b90506000815111611430576040518060200160405280600081525061145b565b8061143a84611e9d565b60405160200161144b929190613191565b6040516020818303038152906040525b915050919050565b600b805461147090613813565b80601f016020809104026020016040519081016040528092919081815260200182805461149c90613813565b80156114e95780601f106114be576101008083540402835291602001916114e9565b820191906000526020600020905b8154815290600101906020018083116114cc57829003601f168201915b505050505081565b6000600560008473ffffffffffffffffffffffffffffffffffffffff1673ffffffffffffffffffffffffffffffffffffffff16815260200190815260200160002060008373ffffffffffffffffffffffffffffffffffffffff1673ffffffffffffffffffffffffffffffffffffffff16815260200190815260200160002060009054906101000a900460ff16905092915050565b61158d611753565b73ffffffffffffffffffffffffffffffffffffffff166115ab611271565b73ffffffffffffffffffffffffffffffffffffffff1614611601576040517f08c379a00000000000000000000000000000000000000000000000000000000081526004016115f8906133d9565b60405180910390fd5b600073ffffffffffffffffffffffffffffffffffffffff168173ffffffffffffffffffffffffffffffffffffffff161415611671576040517f08c379a000000000000000000000000000000000000000000000000000000000815260040161166890613279565b60405180910390fd5b61167a81611b4e565b50565b60007f01ffc9a7000000000000000000000000000000000000000000000000000000007bffffffffffffffffffffffffffffffffffffffffffffffffffffffff1916827bffffffffffffffffffffffffffffffffffffffffffffffffffffffff1916149050919050565b60008073ffffffffffffffffffffffffffffffffffffffff166002600084815260200190815260200160002060009054906101000a900473ffffffffffffffffffffffffffffffffffffffff1673ffffffffffffffffffffffffffffffffffffffff1614159050919050565b600033905090565b816004600083815260200190815260200160002060006101000a81548173ffffffffffffffffffffffffffffffffffffffff021916908373ffffffffffffffffffffffffffffffffffffffff160217905550808273ffffffffffffffffffffffffffffffffffffffff166117ce83610cd7565b73ffffffffffffffffffffffffffffffffffffffff167f8c5be1e5ebec7d5bd14f71427d1e84f3dd0314c0f7b2291e5b200ac8c7c3b92560405160405180910390a45050565b600061181f826116e7565b61185e576040517f08c379a0000000000000000000000000000000000000000000000000000000008152600401611855906132f9565b60405180910390fd5b600061186983610cd7565b90508073ffffffffffffffffffffffffffffffffffffffff168473ffffffffffffffffffffffffffffffffffffffff1614806118d857508373ffffffffffffffffffffffffffffffffffffffff166118c084610819565b73ffffffffffffffffffffffffffffffffffffffff16145b806118e957506118e881856114f1565b5b91505092915050565b8273ffffffffffffffffffffffffffffffffffffffff1661191282610cd7565b73ffffffffffffffffffffffffffffffffffffffff1614611968576040517f08c379a000000000000000000000000000000000000000000000000000000000815260040161195f90613419565b60405180910390fd5b600073ffffffffffffffffffffffffffffffffffffffff168273ffffffffffffffffffffffffffffffffffffffff1614156119d8576040517f08c379a00000000000000000000000000000000000000000000000000000000081526004016119cf906132b9565b60405180910390fd5b6119e383838361204a565b6119ee60008261175b565b6001600360008573ffffffffffffffffffffffffffffffffffffffff1673ffffffffffffffffffffffffffffffffffffffff1681526020019081526020016000206000828254611a3e9190613729565b925050819055506001600360008473ffffffffffffffffffffffffffffffffffffffff1673ffffffffffffffffffffffffffffffffffffffff1681526020019081526020016000206000828254611a959190613648565b92505081905550816002600083815260200190815260200160002060006101000a81548173ffffffffffffffffffffffffffffffffffffffff021916908373ffffffffffffffffffffffffffffffffffffffff160217905550808273ffffffffffffffffffffffffffffffffffffffff168473ffffffffffffffffffffffffffffffffffffffff167fddf252ad1be2c89b69c2b068fc378daa952ba7f163c4a11628f55a4df523b3ef60405160405180910390a4505050565b6000600660009054906101000a900473ffffffffffffffffffffffffffffffffffffffff16905081600660006101000a81548173ffffffffffffffffffffffffffffffffffffffff021916908373ffffffffffffffffffffffffffffffffffffffff1602179055508173ffffffffffffffffffffffffffffffffffffffff168173ffffffffffffffffffffffffffffffffffffffff167f8be0079c531659141344cd1fd0a4f28419497f9722a3daafe3b4186f6b6457e060405160405180910390a35050565b600081600001549050919050565b611c2c600861204f565b611c3f81611c3a6008611c14565b612065565b50565b8173ffffffffffffffffffffffffffffffffffffffff168373ffffffffffffffffffffffffffffffffffffffff161415611cb1576040517f08c379a0000000000000000000000000000000000000000000000000000000008152600401611ca8906132d9565b60405180910390fd5b80600560008573ffffffffffffffffffffffffffffffffffffffff1673ffffffffffffffffffffffffffffffffffffffff16815260200190815260200160002060008473ffffffffffffffffffffffffffffffffffffffff1673ffffffffffffffffffffffffffffffffffffffff16815260200190815260200160002060006101000a81548160ff0219169083151502179055508173ffffffffffffffffffffffffffffffffffffffff168373ffffffffffffffffffffffffffffffffffffffff167f17307eab39ab6107e8899845ad3d59bd9653f200f220920489ca2b5937696c3183604051611da2919061321c565b60405180910390a3505050565b611dba8484846118f2565b611dc684848484612083565b611e05576040517f08c379a0000000000000000000000000000000000000000000000000000000008152600401611dfc90613259565b60405180910390fd5b50505050565b6060600b8054611e1a90613813565b80601f0160208091040260200160405190810160405280929190818152602001828054611e4690613813565b8015611e935780601f10611e6857610100808354040283529160200191611e93565b820191906000526020600020905b815481529060010190602001808311611e7657829003601f168201915b5050505050905090565b60606000821415611ee5576040518060400160405280600181526020017f30000000000000000000000000000000000000000000000000000000000000008152509050612045565b600082905060005b60008214611f17578080611f0090613845565b915050600a82611f10919061369e565b9150611eed565b60008167ffffffffffffffff811115611f59577f4e487b7100000000000000000000000000000000000000000000000000000000600052604160045260246000fd5b6040519080825280601f01601f191660200182016040528015611f8b5781602001600182028036833780820191505090505b5090505b6000851461203e57600182611fa49190613729565b9150600a85611fb3919061388e565b6030611fbf9190613648565b60f81b818381518110611ffb577f4e487b7100000000000000000000000000000000000000000000000000000000600052603260045260246000fd5b60200101907effffffffffffffffffffffffffffffffffffffffffffffffffffffffffffff1916908160001a905350600a85612037919061369e565b9450611f8f565b8093505050505b919050565b505050565b6001816000016000828254019250508190555050565b61207f82826040518060200160405280600081525061221a565b5050565b60006120a48473ffffffffffffffffffffffffffffffffffffffff16612275565b1561220d578373ffffffffffffffffffffffffffffffffffffffff1663150b7a026120cd611753565b8786866040518563ffffffff1660e01b81526004016120ef94939291906131d0565b602060405180830381600087803b15801561210957600080fd5b505af192505050801561213a57506040513d601f19601f820116820180604052508101906121379190612817565b60015b6121bd573d806000811461216a576040519150601f19603f3d011682016040523d82523d6000602084013e61216f565b606091505b506000815114156121b5576040517f08c379a00000000000000000000000000000000000000000000000000000000081526004016121ac90613259565b60405180910390fd5b805181602001fd5b63150b7a0260e01b7bffffffffffffffffffffffffffffffffffffffffffffffffffffffff1916817bffffffffffffffffffffffffffffffffffffffffffffffffffffffff191614915050612212565b600190505b949350505050565b6122248383612288565b6122316000848484612083565b612270576040517f08c379a000000000000000000000000000000000000000000000000000000000815260040161226790613259565b60405180910390fd5b505050565b600080823b905060008111915050919050565b600073ffffffffffffffffffffffffffffffffffffffff168273ffffffffffffffffffffffffffffffffffffffff1614156122f8576040517f08c379a00000000000000000000000000000000000000000000000000000000081526004016122ef90613399565b60405180910390fd5b612301816116e7565b15612341576040517f08c379a000000000000000000000000000000000000000000000000000000000815260040161233890613299565b60405180910390fd5b61234d6000838361204a565b6001600360008473ffffffffffffffffffffffffffffffffffffffff1673ffffffffffffffffffffffffffffffffffffffff168152602001908152602001600020600082825461239d9190613648565b92505081905550816002600083815260200190815260200160002060006101000a81548173ffffffffffffffffffffffffffffffffffffffff021916908373ffffffffffffffffffffffffffffffffffffffff160217905550808273ffffffffffffffffffffffffffffffffffffffff16600073ffffffffffffffffffffffffffffffffffffffff167fddf252ad1be2c89b69c2b068fc378daa952ba7f163c4a11628f55a4df523b3ef60405160405180910390a45050565b82805461246290613813565b90600052602060002090601f01602090048101928261248457600085556124cb565b82601f1061249d57805160ff19168380011785556124cb565b828001600101855582156124cb579182015b828111156124ca5782518255916020019190600101906124af565b5b5090506124d891906124dc565b5090565b5b808211156124f55760008160009055506001016124dd565b5090565b600061250c612507846135a5565b613574565b90508281526020810184848401111561252457600080fd5b61252f8482856137d1565b509392505050565b600061254a612545846135d5565b613574565b90508281526020810184848401111561256257600080fd5b61256d8482856137d1565b509392505050565b6000813590506125848161398c565b92915050565b600081359050612599816139a3565b92915050565b6000813590506125ae816139ba565b92915050565b6000815190506125c3816139ba565b92915050565b600082601f8301126125da57600080fd5b81356125ea8482602086016124f9565b91505092915050565b600082601f83011261260457600080fd5b8135612614848260208601612537565b91505092915050565b60008135905061262c816139d1565b92915050565b600081519050612641816139d1565b92915050565b60006020828403121561265957600080fd5b600061266784828501612575565b91505092915050565b6000806040838503121561268357600080fd5b600061269185828601612575565b92505060206126a285828601612575565b9150509250929050565b6000806000606084860312156126c157600080fd5b60006126cf86828701612575565b93505060206126e086828701612575565b92505060406126f18682870161261d565b9150509250925092565b6000806000806080858703121561271157600080fd5b600061271f87828801612575565b945050602061273087828801612575565b93505060406127418782880161261d565b925050606085013567ffffffffffffffff81111561275e57600080fd5b61276a878288016125c9565b91505092959194509250565b6000806040838503121561278957600080fd5b600061279785828601612575565b92505060206127a88582860161258a565b9150509250929050565b600080604083850312156127c557600080fd5b60006127d385828601612575565b92505060206127e48582860161261d565b9150509250929050565b60006020828403121561280057600080fd5b600061280e8482850161259f565b91505092915050565b60006020828403121561282957600080fd5b6000612837848285016125b4565b91505092915050565b60006020828403121561285257600080fd5b600082013567ffffffffffffffff81111561286c57600080fd5b612878848285016125f3565b91505092915050565b60006020828403121561289357600080fd5b60006128a18482850161261d565b91505092915050565b6000602082840312156128bc57600080fd5b60006128ca84828501612632565b91505092915050565b6128dc8161375d565b82525050565b6128eb8161376f565b82525050565b60006128fc82613605565b612906818561361b565b93506129168185602086016137e0565b61291f8161397b565b840191505092915050565b600061293582613610565b61293f818561362c565b935061294f8185602086016137e0565b6129588161397b565b840191505092915050565b600061296e82613610565b612978818561363d565b93506129888185602086016137e0565b80840191505092915050565b60006129a160328361362c565b91507f4552433732313a207472616e7366657220746f206e6f6e20455243373231526560008301527f63656976657220696d706c656d656e74657200000000000000000000000000006020830152604082019050919050565b6000612a0760268361362c565b91507f4f776e61626c653a206e6577206f776e657220697320746865207a65726f206160008301527f64647265737300000000000000000000000000000000000000000000000000006020830152604082019050919050565b6000612a6d601c8361362c565b91507f4552433732313a20746f6b656e20616c7265616479206d696e746564000000006000830152602082019050919050565b6000612aad60248361362c565b91507f4552433732313a207472616e7366657220746f20746865207a65726f2061646460008301527f72657373000000000000000000000000000000000000000000000000000000006020830152604082019050919050565b6000612b1360198361362c565b91507f4552433732313a20617070726f766520746f2063616c6c6572000000000000006000830152602082019050919050565b6000612b53602c8361362c565b91507f4552433732313a206f70657261746f7220717565727920666f72206e6f6e657860008301527f697374656e7420746f6b656e00000000000000000000000000000000000000006020830152604082019050919050565b6000612bb960118361362c565b91507f6d6178203120636172206174206f6e63650000000000000000000000000000006000830152602082019050919050565b6000612bf960388361362c565b91507f4552433732313a20617070726f76652063616c6c6572206973206e6f74206f7760008301527f6e6572206e6f7220617070726f76656420666f7220616c6c00000000000000006020830152604082019050919050565b6000612c5f602a8361362c565b91507f4552433732313a2062616c616e636520717565727920666f7220746865207a6560008301527f726f2061646472657373000000000000000000000000000000000000000000006020830152604082019050919050565b6000612cc560298361362c565b91507f4552433732313a206f776e657220717565727920666f72206e6f6e657869737460008301527f656e7420746f6b656e00000000000000000000000000000000000000000000006020830152604082019050919050565b6000612d2b60208361362c565b91507f4552433732313a206d696e7420746f20746865207a65726f20616464726573736000830152602082019050919050565b6000612d6b602c8361362c565b91507f4552433732313a20617070726f76656420717565727920666f72206e6f6e657860008301527f697374656e7420746f6b656e00000000000000000000000000000000000000006020830152604082019050919050565b6000612dd160208361362c565b91507f4f776e61626c653a2063616c6c6572206973206e6f7420746865206f776e65726000830152602082019050919050565b6000612e11601c8361362c565b91507f796f7520617265206e6f74206f6e207468652077686974656c697374000000006000830152602082019050919050565b6000612e5160298361362c565b91507f4552433732313a207472616e73666572206f6620746f6b656e2074686174206960008301527f73206e6f74206f776e00000000000000000000000000000000000000000000006020830152604082019050919050565b6000612eb7602f8361362c565b91507f4552433732314d657461646174613a2055524920717565727920666f72206e6f60008301527f6e6578697374656e7420746f6b656e00000000000000000000000000000000006020830152604082019050919050565b6000612f1d60178361362c565b91507f67726561746572207468616e206d617820737570706c790000000000000000006000830152602082019050919050565b6000612f5d60218361362c565b91507f4552433732313a20617070726f76616c20746f2063757272656e74206f776e6560008301527f72000000000000000000000000000000000000000000000000000000000000006020830152604082019050919050565b6000612fc360198361362c565b91507f65786163742076616c756520696e20455448206e6565646564000000000000006000830152602082019050919050565b6000613003600d8361362c565b91507f6d696e696d756d203120636172000000000000000000000000000000000000006000830152602082019050919050565b600061304360268361362c565b91507f796f752063616e206d696e74206f6e6c79206f6e6520647572696e672077686960008301527f74656c69737400000000000000000000000000000000000000000000000000006020830152604082019050919050565b60006130a960318361362c565b91507f4552433732313a207472616e736665722063616c6c6572206973206e6f74206f60008301527f776e6572206e6f7220617070726f7665640000000000000000000000000000006020830152604082019050919050565b600061310f60118361362c565b91507f6d6178203520636172206174206f6e63650000000000000000000000000000006000830152602082019050919050565b600061314f601f8361362c565b91507f5265656e7472616e637947756172643a207265656e7472616e742063616c6c006000830152602082019050919050565b61318b816137c7565b82525050565b600061319d8285612963565b91506131a98284612963565b91508190509392505050565b60006020820190506131ca60008301846128d3565b92915050565b60006080820190506131e560008301876128d3565b6131f260208301866128d3565b6131ff6040830185613182565b818103606083015261321181846128f1565b905095945050505050565b600060208201905061323160008301846128e2565b92915050565b60006020820190508181036000830152613251818461292a565b905092915050565b6000602082019050818103600083015261327281612994565b9050919050565b60006020820190508181036000830152613292816129fa565b9050919050565b600060208201905081810360008301526132b281612a60565b9050919050565b600060208201905081810360008301526132d281612aa0565b9050919050565b600060208201905081810360008301526132f281612b06565b9050919050565b6000602082019050818103600083015261331281612b46565b9050919050565b6000602082019050818103600083015261333281612bac565b9050919050565b6000602082019050818103600083015261335281612bec565b9050919050565b6000602082019050818103600083015261337281612c52565b9050919050565b6000602082019050818103600083015261339281612cb8565b9050919050565b600060208201905081810360008301526133b281612d1e565b9050919050565b600060208201905081810360008301526133d281612d5e565b9050919050565b600060208201905081810360008301526133f281612dc4565b9050919050565b6000602082019050818103600083015261341281612e04565b9050919050565b6000602082019050818103600083015261343281612e44565b9050919050565b6000602082019050818103600083015261345281612eaa565b9050919050565b6000602082019050818103600083015261347281612f10565b9050919050565b6000602082019050818103600083015261349281612f50565b9050919050565b600060208201905081810360008301526134b281612fb6565b9050919050565b600060208201905081810360008301526134d281612ff6565b9050919050565b600060208201905081810360008301526134f281613036565b9050919050565b600060208201905081810360008301526135128161309c565b9050919050565b6000602082019050818103600083015261353281613102565b9050919050565b6000602082019050818103600083015261355281613142565b9050919050565b600060208201905061356e6000830184613182565b92915050565b6000604051905081810181811067ffffffffffffffff8211171561359b5761359a61394c565b5b8060405250919050565b600067ffffffffffffffff8211156135c0576135bf61394c565b5b601f19601f8301169050602081019050919050565b600067ffffffffffffffff8211156135f0576135ef61394c565b5b601f19601f8301169050602081019050919050565b600081519050919050565b600081519050919050565b600082825260208201905092915050565b600082825260208201905092915050565b600081905092915050565b6000613653826137c7565b915061365e836137c7565b9250827fffffffffffffffffffffffffffffffffffffffffffffffffffffffffffffffff03821115613693576136926138bf565b5b828201905092915050565b60006136a9826137c7565b91506136b4836137c7565b9250826136c4576136c36138ee565b5b828204905092915050565b60006136da826137c7565b91506136e5836137c7565b9250817fffffffffffffffffffffffffffffffffffffffffffffffffffffffffffffffff048311821515161561371e5761371d6138bf565b5b828202905092915050565b6000613734826137c7565b915061373f836137c7565b925082821015613752576137516138bf565b5b828203905092915050565b6000613768826137a7565b9050919050565b60008115159050919050565b60007fffffffff0000000000000000000000000000000000000000000000000000000082169050919050565b600073ffffffffffffffffffffffffffffffffffffffff82169050919050565b6000819050919050565b82818337600083830152505050565b60005b838110156137fe5780820151818401526020810190506137e3565b8381111561380d576000848401525b50505050565b6000600282049050600182168061382b57607f821691505b6020821081141561383f5761383e61391d565b5b50919050565b6000613850826137c7565b91507fffffffffffffffffffffffffffffffffffffffffffffffffffffffffffffffff821415613883576138826138bf565b5b600182019050919050565b6000613899826137c7565b91506138a4836137c7565b9250826138b4576138b36138ee565b5b828206905092915050565b7f4e487b7100000000000000000000000000000000000000000000000000000000600052601160045260246000fd5b7f4e487b7100000000000000000000000000000000000000000000000000000000600052601260045260246000fd5b7f4e487b7100000000000000000000000000000000000000000000000000000000600052602260045260246000fd5b7f4e487b7100000000000000000000000000000000000000000000000000000000600052604160045260246000fd5b6000601f19601f8301169050919050565b6139958161375d565b81146139a057600080fd5b50565b6139ac8161376f565b81146139b757600080fd5b50565b6139c38161377b565b81146139ce57600080fd5b50565b6139da816137c7565b81146139e557600080fd5b5056fea26469706673582212208dee3932c0e6e5d9abb61c22c6d6bf498850e11cea184a28c1b0378fc1aa019f64736f6c63430008000033",
  "linkReferences": {},
  "deployedLinkReferences": {}
}