{
  "_format": "hh-sol-artifact-1",
  "contractName": "Metacar",
  "sourceName": "contracts/Metacar.sol",
  "abi": [
    {
      "inputs": [],
      "stateMutability": "nonpayable",
      "type": "constructor"
    },
    {
      "anonymous": false,
      "inputs": [
        {
          "indexed": true,
          "internalType": "address",
          "name": "owner",
          "type": "address"
        },
        {
          "indexed": true,
          "internalType": "address",
          "name": "approved",
          "type": "address"
        },
        {
          "indexed": true,
          "internalType": "uint256",
          "name": "tokenId",
          "type": "uint256"
        }
      ],
      "name": "Approval",
      "type": "event"
    },
    {
      "anonymous": false,
      "inputs": [
        {
          "indexed": true,
          "internalType": "address",
          "name": "owner",
          "type": "address"
        },
        {
          "indexed": true,
          "internalType": "address",
          "name": "operator",
          "type": "address"
        },
        {
          "indexed": false,
          "internalType": "bool",
          "name": "approved",
          "type": "bool"
        }
      ],
      "name": "ApprovalForAll",
      "type": "event"
    },
    {
      "anonymous": false,
      "inputs": [
        {
          "indexed": true,
          "internalType": "address",
          "name": "previousOwner",
          "type": "address"
        },
        {
          "indexed": true,
          "internalType": "address",
          "name": "newOwner",
          "type": "address"
        }
      ],
      "name": "OwnershipTransferred",
      "type": "event"
    },
    {
      "anonymous": false,
      "inputs": [
        {
          "indexed": true,
          "internalType": "address",
          "name": "from",
          "type": "address"
        },
        {
          "indexed": true,
          "internalType": "address",
          "name": "to",
          "type": "address"
        },
        {
          "indexed": true,
          "internalType": "uint256",
          "name": "tokenId",
          "type": "uint256"
        }
      ],
      "name": "Transfer",
      "type": "event"
    },
    {
      "inputs": [
        {
          "internalType": "address",
          "name": "recipient",
          "type": "address"
        },
        {
          "internalType": "uint256",
          "name": "amount",
          "type": "uint256"
        }
      ],
      "name": "acquire",
      "outputs": [],
      "stateMutability": "payable",
      "type": "function"
    },
    {
      "inputs": [
        {
          "internalType": "address",
          "name": "to",
          "type": "address"
        },
        {
          "internalType": "uint256",
          "name": "tokenId",
          "type": "uint256"
        }
      ],
      "name": "approve",
      "outputs": [],
      "stateMutability": "nonpayable",
      "type": "function"
    },
    {
      "inputs": [
        {
          "internalType": "address",
          "name": "owner",
          "type": "address"
        }
      ],
      "name": "balanceOf",
      "outputs": [
        {
          "internalType": "uint256",
          "name": "",
          "type": "uint256"
        }
      ],
      "stateMutability": "view",
      "type": "function"
    },
    {
      "inputs": [],
      "name": "baseTokenURI",
      "outputs": [
        {
          "internalType": "string",
          "name": "",
          "type": "string"
        }
      ],
      "stateMutability": "view",
      "type": "function"
    },
    {
      "inputs": [
        {
          "internalType": "uint256",
          "name": "tokenId",
          "type": "uint256"
        }
      ],
      "name": "getApproved",
      "outputs": [
        {
          "internalType": "address",
          "name": "",
          "type": "address"
        }
      ],
      "stateMutability": "view",
      "type": "function"
    },
    {
      "inputs": [],
      "name": "getCarPrice",
      "outputs": [
        {
          "internalType": "uint256",
          "name": "",
          "type": "uint256"
        }
      ],
      "stateMutability": "view",
      "type": "function"
    },
    {
      "inputs": [
        {
          "internalType": "address",
          "name": "_owner",
          "type": "address"
        }
      ],
      "name": "getCarsOfOwner",
      "outputs": [
        {
          "internalType": "uint256[]",
          "name": "",
          "type": "uint256[]"
        }
      ],
      "stateMutability": "view",
      "type": "function"
    },
    {
      "inputs": [],
      "name": "getIsSaleActive",
      "outputs": [
        {
          "internalType": "bool",
          "name": "",
          "type": "bool"
        }
      ],
      "stateMutability": "view",
      "type": "function"
    },
    {
      "inputs": [],
      "name": "getIsWhitelistActive",
      "outputs": [
        {
          "internalType": "bool",
          "name": "",
          "type": "bool"
        }
      ],
      "stateMutability": "view",
      "type": "function"
    },
    {
      "inputs": [
        {
          "internalType": "address",
          "name": "_address",
          "type": "address"
        }
      ],
      "name": "isAdmin",
      "outputs": [
        {
          "internalType": "bool",
          "name": "",
          "type": "bool"
        }
      ],
      "stateMutability": "view",
      "type": "function"
    },
    {
      "inputs": [
        {
          "internalType": "address",
          "name": "owner",
          "type": "address"
        },
        {
          "internalType": "address",
          "name": "operator",
          "type": "address"
        }
      ],
      "name": "isApprovedForAll",
      "outputs": [
        {
          "internalType": "bool",
          "name": "",
          "type": "bool"
        }
      ],
      "stateMutability": "view",
      "type": "function"
    },
    {
      "inputs": [],
      "name": "isSaleActive",
      "outputs": [
        {
          "internalType": "bool",
          "name": "",
          "type": "bool"
        }
      ],
      "stateMutability": "view",
      "type": "function"
    },
    {
      "inputs": [],
      "name": "isWhitelistActive",
      "outputs": [
        {
          "internalType": "bool",
          "name": "",
          "type": "bool"
        }
      ],
      "stateMutability": "view",
      "type": "function"
    },
    {
      "inputs": [
        {
          "internalType": "address",
          "name": "_whitelistedAddress",
          "type": "address"
        }
      ],
      "name": "isWhitelisted",
      "outputs": [
        {
          "internalType": "bool",
          "name": "",
          "type": "bool"
        }
      ],
      "stateMutability": "view",
      "type": "function"
    },
    {
      "inputs": [],
      "name": "name",
      "outputs": [
        {
          "internalType": "string",
          "name": "",
          "type": "string"
        }
      ],
      "stateMutability": "view",
      "type": "function"
    },
    {
      "inputs": [],
      "name": "owner",
      "outputs": [
        {
          "internalType": "address",
          "name": "",
          "type": "address"
        }
      ],
      "stateMutability": "view",
      "type": "function"
    },
    {
      "inputs": [
        {
          "internalType": "uint256",
          "name": "tokenId",
          "type": "uint256"
        }
      ],
      "name": "ownerOf",
      "outputs": [
        {
          "internalType": "address",
          "name": "",
          "type": "address"
        }
      ],
      "stateMutability": "view",
      "type": "function"
    },
    {
      "inputs": [],
      "name": "renounceOwnership",
      "outputs": [],
      "stateMutability": "nonpayable",
      "type": "function"
    },
    {
      "inputs": [
        {
          "internalType": "address",
          "name": "from",
          "type": "address"
        },
        {
          "internalType": "address",
          "name": "to",
          "type": "address"
        },
        {
          "internalType": "uint256",
          "name": "tokenId",
          "type": "uint256"
        }
      ],
      "name": "safeTransferFrom",
      "outputs": [],
      "stateMutability": "nonpayable",
      "type": "function"
    },
    {
      "inputs": [
        {
          "internalType": "address",
          "name": "from",
          "type": "address"
        },
        {
          "internalType": "address",
          "name": "to",
          "type": "address"
        },
        {
          "internalType": "uint256",
          "name": "tokenId",
          "type": "uint256"
        },
        {
          "internalType": "bytes",
          "name": "_data",
          "type": "bytes"
        }
      ],
      "name": "safeTransferFrom",
      "outputs": [],
      "stateMutability": "nonpayable",
      "type": "function"
    },
    {
      "inputs": [
        {
          "internalType": "address",
          "name": "operator",
          "type": "address"
        },
        {
          "internalType": "bool",
          "name": "approved",
          "type": "bool"
        }
      ],
      "name": "setApprovalForAll",
      "outputs": [],
      "stateMutability": "nonpayable",
      "type": "function"
    },
    {
      "inputs": [
        {
          "internalType": "string",
          "name": "_baseTokenURI",
          "type": "string"
        }
      ],
      "name": "setBaseTokenURI",
      "outputs": [],
      "stateMutability": "nonpayable",
      "type": "function"
    },
    {
      "inputs": [],
      "name": "startSale",
      "outputs": [],
      "stateMutability": "nonpayable",
      "type": "function"
    },
    {
      "inputs": [],
      "name": "startWhitelist",
      "outputs": [],
      "stateMutability": "nonpayable",
      "type": "function"
    },
    {
      "inputs": [],
      "name": "stopSale",
      "outputs": [],
      "stateMutability": "nonpayable",
      "type": "function"
    },
    {
      "inputs": [],
      "name": "stopWhitelist",
      "outputs": [],
      "stateMutability": "nonpayable",
      "type": "function"
    },
    {
      "inputs": [
        {
          "internalType": "bytes4",
          "name": "interfaceId",
          "type": "bytes4"
        }
      ],
      "name": "supportsInterface",
      "outputs": [
        {
          "internalType": "bool",
          "name": "",
          "type": "bool"
        }
      ],
      "stateMutability": "view",
      "type": "function"
    },
    {
      "inputs": [],
      "name": "symbol",
      "outputs": [
        {
          "internalType": "string",
          "name": "",
          "type": "string"
        }
      ],
      "stateMutability": "view",
      "type": "function"
    },
    {
      "inputs": [
        {
          "internalType": "uint256",
          "name": "index",
          "type": "uint256"
        }
      ],
      "name": "tokenByIndex",
      "outputs": [
        {
          "internalType": "uint256",
          "name": "",
          "type": "uint256"
        }
      ],
      "stateMutability": "view",
      "type": "function"
    },
    {
      "inputs": [],
      "name": "tokenIndex",
      "outputs": [
        {
          "internalType": "uint256",
          "name": "",
          "type": "uint256"
        }
      ],
      "stateMutability": "view",
      "type": "function"
    },
    {
      "inputs": [
        {
          "internalType": "address",
          "name": "owner",
          "type": "address"
        },
        {
          "internalType": "uint256",
          "name": "index",
          "type": "uint256"
        }
      ],
      "name": "tokenOfOwnerByIndex",
      "outputs": [
        {
          "internalType": "uint256",
          "name": "",
          "type": "uint256"
        }
      ],
      "stateMutability": "view",
      "type": "function"
    },
    {
      "inputs": [
        {
          "internalType": "uint256",
          "name": "tokenId",
          "type": "uint256"
        }
      ],
      "name": "tokenURI",
      "outputs": [
        {
          "internalType": "string",
          "name": "",
          "type": "string"
        }
      ],
      "stateMutability": "view",
      "type": "function"
    },
    {
      "inputs": [],
      "name": "totalCarsToMint",
      "outputs": [
        {
          "internalType": "uint256",
          "name": "",
          "type": "uint256"
        }
      ],
      "stateMutability": "view",
      "type": "function"
    },
    {
      "inputs": [],
      "name": "totalSupply",
      "outputs": [
        {
          "internalType": "uint256",
          "name": "",
          "type": "uint256"
        }
      ],
      "stateMutability": "view",
      "type": "function"
    },
    {
      "inputs": [
        {
          "internalType": "address",
          "name": "from",
          "type": "address"
        },
        {
          "internalType": "address",
          "name": "to",
          "type": "address"
        },
        {
          "internalType": "uint256",
          "name": "tokenId",
          "type": "uint256"
        }
      ],
      "name": "transferFrom",
      "outputs": [],
      "stateMutability": "nonpayable",
      "type": "function"
    },
    {
      "inputs": [
        {
          "internalType": "address",
          "name": "newOwner",
          "type": "address"
        }
      ],
      "name": "transferOwnership",
      "outputs": [],
      "stateMutability": "nonpayable",
      "type": "function"
    },
    {
      "inputs": [
        {
          "internalType": "address",
          "name": "_addressToWhitelist",
          "type": "address"
        }
      ],
      "name": "unWhitelistAddress",
      "outputs": [],
      "stateMutability": "nonpayable",
      "type": "function"
    },
    {
      "inputs": [
        {
          "internalType": "address",
          "name": "_addressToWhitelist",
          "type": "address"
        }
      ],
      "name": "whitelistAddress",
      "outputs": [],
      "stateMutability": "nonpayable",
      "type": "function"
    },
    {
      "inputs": [
        {
          "internalType": "uint256",
          "name": "amount",
          "type": "uint256"
        }
      ],
      "name": "withdrawEarnings",
      "outputs": [],
      "stateMutability": "nonpayable",
      "type": "function"
    }
  ],
  "bytecode": "0x60806040526001600f60006101000a81548160ff0219169083151502179055506000600f60016101000a81548160ff02191690831515021790555060006010553480156200004c57600080fd5b506040518060400160405280600881526020017f4d657461636172730000000000000000000000000000000000000000000000008152506040518060400160405280600381526020017f43415200000000000000000000000000000000000000000000000000000000008152508160009080519060200190620000d192919062000835565b508060019080519060200190620000ea92919062000835565b5050506200010d620001016200076760201b60201c565b6200076f60201b60201c565b6001600b8190555060405180602001604052806000815250600e90805190602001906200013c92919062000835565b50735b72215e47d49357e21a2f783e9b62b9f8949ed160116000600481106200018e577f4e487b7100000000000000000000000000000000000000000000000000000000600052603260045260246000fd5b0160006101000a81548173ffffffffffffffffffffffffffffffffffffffff021916908373ffffffffffffffffffffffffffffffffffffffff160217905550730a35dee58a71804427feb3150f5ac3681f62a0cf60116001600481106200021e577f4e487b7100000000000000000000000000000000000000000000000000000000600052603260045260246000fd5b0160006101000a81548173ffffffffffffffffffffffffffffffffffffffff021916908373ffffffffffffffffffffffffffffffffffffffff16021790555073cfe1b40e1827fed718b5df38063c6fd5f3df4ed96011600260048110620002ae577f4e487b7100000000000000000000000000000000000000000000000000000000600052603260045260246000fd5b0160006101000a81548173ffffffffffffffffffffffffffffffffffffffff021916908373ffffffffffffffffffffffffffffffffffffffff16021790555073b35772aca12dda6986b6bd2c972037ec88f097e560116003600481106200033e577f4e487b7100000000000000000000000000000000000000000000000000000000600052603260045260246000fd5b0160006101000a81548173ffffffffffffffffffffffffffffffffffffffff021916908373ffffffffffffffffffffffffffffffffffffffff1602179055506107d06015600060048110620003bc577f4e487b7100000000000000000000000000000000000000000000000000000000600052603260045260246000fd5b01819055506107d0601560016004811062000400577f4e487b7100000000000000000000000000000000000000000000000000000000600052603260045260246000fd5b0181905550610bb8601560026004811062000444577f4e487b7100000000000000000000000000000000000000000000000000000000600052603260045260246000fd5b0181905550610bb8601560036004811062000488577f4e487b7100000000000000000000000000000000000000000000000000000000600052603260045260246000fd5b01819055506001600c60006011600060048110620004cf577f4e487b7100000000000000000000000000000000000000000000000000000000600052603260045260246000fd5b0160009054906101000a900473ffffffffffffffffffffffffffffffffffffffff1673ffffffffffffffffffffffffffffffffffffffff1673ffffffffffffffffffffffffffffffffffffffff16815260200190815260200160002060006101000a81548160ff0219169083151502179055506001600c6000601160016004811062000584577f4e487b7100000000000000000000000000000000000000000000000000000000600052603260045260246000fd5b0160009054906101000a900473ffffffffffffffffffffffffffffffffffffffff1673ffffffffffffffffffffffffffffffffffffffff1673ffffffffffffffffffffffffffffffffffffffff16815260200190815260200160002060006101000a81548160ff0219169083151502179055506001600d6000601160006004811062000639577f4e487b7100000000000000000000000000000000000000000000000000000000600052603260045260246000fd5b0160009054906101000a900473ffffffffffffffffffffffffffffffffffffffff1673ffffffffffffffffffffffffffffffffffffffff1673ffffffffffffffffffffffffffffffffffffffff16815260200190815260200160002060006101000a81548160ff0219169083151502179055506001600d60006011600160048110620006ee577f4e487b7100000000000000000000000000000000000000000000000000000000600052603260045260246000fd5b0160009054906101000a900473ffffffffffffffffffffffffffffffffffffffff1673ffffffffffffffffffffffffffffffffffffffff1673ffffffffffffffffffffffffffffffffffffffff16815260200190815260200160002060006101000a81548160ff0219169083151502179055506200094a565b600033905090565b6000600a60009054906101000a900473ffffffffffffffffffffffffffffffffffffffff16905081600a60006101000a81548173ffffffffffffffffffffffffffffffffffffffff021916908373ffffffffffffffffffffffffffffffffffffffff1602179055508173ffffffffffffffffffffffffffffffffffffffff168173ffffffffffffffffffffffffffffffffffffffff167f8be0079c531659141344cd1fd0a4f28419497f9722a3daafe3b4186f6b6457e060405160405180910390a35050565b8280546200084390620008e5565b90600052602060002090601f016020900481019282620008675760008555620008b3565b82601f106200088257805160ff1916838001178555620008b3565b82800160010185558215620008b3579182015b82811115620008b257825182559160200191906001019062000895565b5b509050620008c29190620008c6565b5090565b5b80821115620008e1576000816000905550600101620008c7565b5090565b60006002820490506001821680620008fe57607f821691505b602082108114156200091557620009146200091b565b5b50919050565b7f4e487b7100000000000000000000000000000000000000000000000000000000600052602260045260246000fd5b614d3e806200095a6000396000f3fe6080604052600436106102305760003560e01c80637016ca6a1161012e578063b88d4fde116100ab578063d547cfb71161006f578063d547cfb71461082e578063d55f927314610859578063e36b0b3714610884578063e985e9c51461089b578063f2fde38b146108d857610230565b8063b88d4fde14610749578063c077da9e14610772578063c77a339d1461079d578063c87b56dd146107c8578063cac9ffee1461080557610230565b80638da5cb5b116100f25780638da5cb5b1461067657806395d89b41146106a15780639f23b162146106cc578063a22cb46514610709578063b66a0e5d1461073257610230565b80637016ca6a146105c457806370a08231146105ef578063715018a61461062c5780637f19c412146106435780638530f8481461065a57610230565b8063333cd5c1116101bc578063524513d611610180578063524513d6146104dd578063564566a8146105085780635f644da9146105335780636352211e1461055e5780636e70096e1461059b57610230565b8063333cd5c1146103fa5780633af32abf14610411578063415665851461044e57806342842e0e146104775780634f6ccce7146104a057610230565b806318160ddd1161020357806318160ddd1461030357806323b872dd1461032e57806324d7806c146103575780632f745c591461039457806330176e13146103d157610230565b806301ffc9a71461023557806306fdde0314610272578063081812fc1461029d578063095ea7b3146102da575b600080fd5b34801561024157600080fd5b5061025c600480360381019061025791906136e2565b610901565b6040516102699190614418565b60405180910390f35b34801561027e57600080fd5b5061028761097b565b6040516102949190614433565b60405180910390f35b3480156102a957600080fd5b506102c460048036038101906102bf9190613775565b610a0d565b6040516102d1919061438f565b60405180910390f35b3480156102e657600080fd5b5061030160048036038101906102fc91906136a6565b610a92565b005b34801561030f57600080fd5b50610318610baa565b6040516103259190614835565b60405180910390f35b34801561033a57600080fd5b50610355600480360381019061035091906135a0565b610bb7565b005b34801561036357600080fd5b5061037e6004803603810190610379919061353b565b610c17565b60405161038b9190614418565b60405180910390f35b3480156103a057600080fd5b506103bb60048036038101906103b691906136a6565b610c6d565b6040516103c89190614835565b60405180910390f35b3480156103dd57600080fd5b506103f860048036038101906103f39190613734565b610d12565b005b34801561040657600080fd5b5061040f610d89565b005b34801561041d57600080fd5b506104386004803603810190610433919061353b565b610e03565b6040516104459190614418565b60405180910390f35b34801561045a57600080fd5b506104756004803603810190610470919061353b565b610e5e565b005b34801561048357600080fd5b5061049e600480360381019061049991906135a0565b610f16565b005b3480156104ac57600080fd5b506104c760048036038101906104c29190613775565b610f36565b6040516104d49190614835565b60405180910390f35b3480156104e957600080fd5b506104f2610fcd565b6040516104ff9190614418565b60405180910390f35b34801561051457600080fd5b5061051d610fe0565b60405161052a9190614418565b60405180910390f35b34801561053f57600080fd5b50610548610ff3565b6040516105559190614835565b60405180910390f35b34801561056a57600080fd5b5061058560048036038101906105809190613775565b611027565b604051610592919061438f565b60405180910390f35b3480156105a757600080fd5b506105c260048036038101906105bd9190613775565b6110d9565b005b3480156105d057600080fd5b506105d9611260565b6040516105e69190614835565b60405180910390f35b3480156105fb57600080fd5b506106166004803603810190610611919061353b565b611266565b6040516106239190614835565b60405180910390f35b34801561063857600080fd5b5061064161131e565b005b34801561064f57600080fd5b506106586113a6565b005b610674600480360381019061066f91906136a6565b611420565b005b34801561068257600080fd5b5061068b611790565b604051610698919061438f565b60405180910390f35b3480156106ad57600080fd5b506106b66117ba565b6040516106c39190614433565b60405180910390f35b3480156106d857600080fd5b506106f360048036038101906106ee919061353b565b61184c565b60405161070091906143f6565b60405180910390f35b34801561071557600080fd5b50610730600480360381019061072b919061366a565b6119c8565b005b34801561073e57600080fd5b506107476119de565b005b34801561075557600080fd5b50610770600480360381019061076b91906135ef565b611a58565b005b34801561077e57600080fd5b50610787611aba565b6040516107949190614418565b60405180910390f35b3480156107a957600080fd5b506107b2611ad1565b6040516107bf9190614418565b60405180910390f35b3480156107d457600080fd5b506107ef60048036038101906107ea9190613775565b611ae8565b6040516107fc9190614433565b60405180910390f35b34801561081157600080fd5b5061082c6004803603810190610827919061353b565b611b8f565b005b34801561083a57600080fd5b50610843611c47565b6040516108509190614433565b60405180910390f35b34801561086557600080fd5b5061086e611cd5565b60405161087b9190614835565b60405180910390f35b34801561089057600080fd5b50610899611cdb565b005b3480156108a757600080fd5b506108c260048036038101906108bd9190613564565b611d55565b6040516108cf9190614418565b60405180910390f35b3480156108e457600080fd5b506108ff60048036038101906108fa919061353b565b611de9565b005b60007f780e9d63000000000000000000000000000000000000000000000000000000007bffffffffffffffffffffffffffffffffffffffffffffffffffffffff1916827bffffffffffffffffffffffffffffffffffffffffffffffffffffffff19161480610974575061097382611ee1565b5b9050919050565b60606000805461098a90614b33565b80601f01602080910402602001604051908101604052809291908181526020018280546109b690614b33565b8015610a035780601f106109d857610100808354040283529160200191610a03565b820191906000526020600020905b8154815290600101906020018083116109e657829003601f168201915b5050505050905090565b6000610a1882611fc3565b610a57576040517f08c379a0000000000000000000000000000000000000000000000000000000008152600401610a4e90614655565b60405180910390fd5b6004600083815260200190815260200160002060009054906101000a900473ffffffffffffffffffffffffffffffffffffffff169050919050565b6000610a9d82611027565b90508073ffffffffffffffffffffffffffffffffffffffff168373ffffffffffffffffffffffffffffffffffffffff161415610b0e576040517f08c379a0000000000000000000000000000000000000000000000000000000008152600401610b0590614715565b60405180910390fd5b8073ffffffffffffffffffffffffffffffffffffffff16610b2d61202f565b73ffffffffffffffffffffffffffffffffffffffff161480610b5c5750610b5b81610b5661202f565b611d55565b5b610b9b576040517f08c379a0000000000000000000000000000000000000000000000000000000008152600401610b92906145d5565b60405180910390fd5b610ba58383612037565b505050565b6000600880549050905090565b610bc8610bc261202f565b826120f0565b610c07576040517f08c379a0000000000000000000000000000000000000000000000000000000008152600401610bfe90614795565b60405180910390fd5b610c128383836121ce565b505050565b6000600c60008373ffffffffffffffffffffffffffffffffffffffff1673ffffffffffffffffffffffffffffffffffffffff16815260200190815260200160002060009054906101000a900460ff169050919050565b6000610c7883611266565b8210610cb9576040517f08c379a0000000000000000000000000000000000000000000000000000000008152600401610cb090614455565b60405180910390fd5b600660008473ffffffffffffffffffffffffffffffffffffffff1673ffffffffffffffffffffffffffffffffffffffff168152602001908152602001600020600083815260200190815260200160002054905092915050565b60011515600c60003373ffffffffffffffffffffffffffffffffffffffff1673ffffffffffffffffffffffffffffffffffffffff16815260200190815260200160002060009054906101000a900460ff16151514610d6f57600080fd5b80600e9080519060200190610d8592919061334a565b5050565b60011515600c60003373ffffffffffffffffffffffffffffffffffffffff1673ffffffffffffffffffffffffffffffffffffffff16815260200190815260200160002060009054906101000a900460ff16151514610de657600080fd5b6000600f60006101000a81548160ff021916908315150217905550565b600080600d60008473ffffffffffffffffffffffffffffffffffffffff1673ffffffffffffffffffffffffffffffffffffffff16815260200190815260200160002060009054906101000a900460ff16905080915050919050565b60011515600c60003373ffffffffffffffffffffffffffffffffffffffff1673ffffffffffffffffffffffffffffffffffffffff16815260200190815260200160002060009054906101000a900460ff16151514610ebb57600080fd5b6001600d60008373ffffffffffffffffffffffffffffffffffffffff1673ffffffffffffffffffffffffffffffffffffffff16815260200190815260200160002060006101000a81548160ff02191690831515021790555050565b610f3183838360405180602001604052806000815250611a58565b505050565b6000610f40610baa565b8210610f81576040517f08c379a0000000000000000000000000000000000000000000000000000000008152600401610f78906147d5565b60405180910390fd5b60088281548110610fbb577f4e487b7100000000000000000000000000000000000000000000000000000000600052603260045260246000fd5b90600052602060002001549050919050565b600f60009054906101000a900460ff1681565b600f60019054906101000a900460ff1681565b6000600f60009054906101000a900460ff161561101957667c5850872380009050611024565b66b1a2bc2ec5000090505b90565b6000806002600084815260200190815260200160002060009054906101000a900473ffffffffffffffffffffffffffffffffffffffff169050600073ffffffffffffffffffffffffffffffffffffffff168173ffffffffffffffffffffffffffffffffffffffff1614156110d0576040517f08c379a00000000000000000000000000000000000000000000000000000000081526004016110c790614615565b60405180910390fd5b80915050919050565b60011515600c60003373ffffffffffffffffffffffffffffffffffffffff1673ffffffffffffffffffffffffffffffffffffffff16815260200190815260200160002060009054906101000a900460ff1615151461113657600080fd5b80471015611179576040517f08c379a000000000000000000000000000000000000000000000000000000000815260040161117090614515565b60405180910390fd5b6000612710905060005b600481101561125b57600082601583600481106111c9577f4e487b7100000000000000000000000000000000000000000000000000000000600052603260045260246000fd5b0154856111d691906149ef565b6111e091906149be565b90506112476011836004811061121f577f4e487b7100000000000000000000000000000000000000000000000000000000600052603260045260246000fd5b0160009054906101000a900473ffffffffffffffffffffffffffffffffffffffff168261242a565b50808061125390614b65565b915050611183565b505050565b61271081565b60008073ffffffffffffffffffffffffffffffffffffffff168273ffffffffffffffffffffffffffffffffffffffff1614156112d7576040517f08c379a00000000000000000000000000000000000000000000000000000000081526004016112ce906145f5565b60405180910390fd5b600360008373ffffffffffffffffffffffffffffffffffffffff1673ffffffffffffffffffffffffffffffffffffffff168152602001908152602001600020549050919050565b61132661202f565b73ffffffffffffffffffffffffffffffffffffffff16611344611790565b73ffffffffffffffffffffffffffffffffffffffff161461139a576040517f08c379a000000000000000000000000000000000000000000000000000000000815260040161139190614675565b60405180910390fd5b6113a4600061251e565b565b60011515600c60003373ffffffffffffffffffffffffffffffffffffffff1673ffffffffffffffffffffffffffffffffffffffff16815260200190815260200160002060009054906101000a900460ff1615151461140357600080fd5b6001600f60006101000a81548160ff021916908315150217905550565b6002600b541415611466576040517f08c379a000000000000000000000000000000000000000000000000000000000815260040161145d90614815565b60405180910390fd5b6002600b81905550600f60019054906101000a900460ff166114bd576040517f08c379a00000000000000000000000000000000000000000000000000000000081526004016114b490614595565b60405180910390fd5b60008111611500576040517f08c379a00000000000000000000000000000000000000000000000000000000081526004016114f790614755565b60405180910390fd5b6010546127106115109190614a49565b811115611552576040517f08c379a0000000000000000000000000000000000000000000000000000000008152600401611549906146f5565b60405180910390fd5b348161155c610ff3565b61156691906149ef565b11156115a7576040517f08c379a000000000000000000000000000000000000000000000000000000000815260040161159e90614735565b60405180910390fd5b600f60009054906101000a900460ff161561171757600181146115ff576040517f08c379a00000000000000000000000000000000000000000000000000000000081526004016115f6906145b5565b60405180910390fd5b60013073ffffffffffffffffffffffffffffffffffffffff166370a08231846040518263ffffffff1660e01b815260040161163a919061438f565b60206040518083038186803b15801561165257600080fd5b505afa158015611666573d6000803e3d6000fd5b505050506040513d601f19601f8201168201806040525081019061168a919061379e565b106116ca576040517f08c379a00000000000000000000000000000000000000000000000000000000081526004016116c190614775565b60405180910390fd5b6116d382610e03565b611712576040517f08c379a000000000000000000000000000000000000000000000000000000000815260040161170990614695565b60405180910390fd5b61175c565b600581111561175b576040517f08c379a0000000000000000000000000000000000000000000000000000000008152600401611752906147b5565b60405180910390fd5b5b60005b8181101561178357611770836125e4565b808061177b90614b65565b91505061175f565b506001600b819055505050565b6000600a60009054906101000a900473ffffffffffffffffffffffffffffffffffffffff16905090565b6060600180546117c990614b33565b80601f01602080910402602001604051908101604052809291908181526020018280546117f590614b33565b80156118425780601f1061181757610100808354040283529160200191611842565b820191906000526020600020905b81548152906001019060200180831161182557829003601f168201915b5050505050905090565b6060600061185983611266565b905060008114156118dc57600067ffffffffffffffff8111156118a5577f4e487b7100000000000000000000000000000000000000000000000000000000600052604160045260246000fd5b6040519080825280602002602001820160405280156118d35781602001602082028036833780820191505090505b509150506119c3565b60008167ffffffffffffffff81111561191e577f4e487b7100000000000000000000000000000000000000000000000000000000600052604160045260246000fd5b60405190808252806020026020018201604052801561194c5781602001602082028036833780820191505090505b50905060005b828110156119bc576119648582610c6d565b82828151811061199d577f4e487b7100000000000000000000000000000000000000000000000000000000600052603260045260246000fd5b60200260200101818152505080806119b490614b65565b915050611952565b8193505050505b919050565b6119da6119d361202f565b8383612656565b5050565b60011515600c60003373ffffffffffffffffffffffffffffffffffffffff1673ffffffffffffffffffffffffffffffffffffffff16815260200190815260200160002060009054906101000a900460ff16151514611a3b57600080fd5b6001600f60016101000a81548160ff021916908315150217905550565b611a69611a6361202f565b836120f0565b611aa8576040517f08c379a0000000000000000000000000000000000000000000000000000000008152600401611a9f90614795565b60405180910390fd5b611ab4848484846127c3565b50505050565b6000600f60019054906101000a900460ff16905090565b6000600f60009054906101000a900460ff16905090565b6060611af382611fc3565b611b32576040517f08c379a0000000000000000000000000000000000000000000000000000000008152600401611b29906146d5565b60405180910390fd5b6000611b3c61281f565b90506000815111611b5c5760405180602001604052806000815250611b87565b80611b66846128b1565b604051602001611b77929190614356565b6040516020818303038152906040525b915050919050565b60011515600c60003373ffffffffffffffffffffffffffffffffffffffff1673ffffffffffffffffffffffffffffffffffffffff16815260200190815260200160002060009054906101000a900460ff16151514611bec57600080fd5b6000600d60008373ffffffffffffffffffffffffffffffffffffffff1673ffffffffffffffffffffffffffffffffffffffff16815260200190815260200160002060006101000a81548160ff02191690831515021790555050565b600e8054611c5490614b33565b80601f0160208091040260200160405190810160405280929190818152602001828054611c8090614b33565b8015611ccd5780601f10611ca257610100808354040283529160200191611ccd565b820191906000526020600020905b815481529060010190602001808311611cb057829003601f168201915b505050505081565b60105481565b60011515600c60003373ffffffffffffffffffffffffffffffffffffffff1673ffffffffffffffffffffffffffffffffffffffff16815260200190815260200160002060009054906101000a900460ff16151514611d3857600080fd5b6000600f60016101000a81548160ff021916908315150217905550565b6000600560008473ffffffffffffffffffffffffffffffffffffffff1673ffffffffffffffffffffffffffffffffffffffff16815260200190815260200160002060008373ffffffffffffffffffffffffffffffffffffffff1673ffffffffffffffffffffffffffffffffffffffff16815260200190815260200160002060009054906101000a900460ff16905092915050565b611df161202f565b73ffffffffffffffffffffffffffffffffffffffff16611e0f611790565b73ffffffffffffffffffffffffffffffffffffffff1614611e65576040517f08c379a0000000000000000000000000000000000000000000000000000000008152600401611e5c90614675565b60405180910390fd5b600073ffffffffffffffffffffffffffffffffffffffff168173ffffffffffffffffffffffffffffffffffffffff161415611ed5576040517f08c379a0000000000000000000000000000000000000000000000000000000008152600401611ecc90614495565b60405180910390fd5b611ede8161251e565b50565b60007f80ac58cd000000000000000000000000000000000000000000000000000000007bffffffffffffffffffffffffffffffffffffffffffffffffffffffff1916827bffffffffffffffffffffffffffffffffffffffffffffffffffffffff19161480611fac57507f5b5e139f000000000000000000000000000000000000000000000000000000007bffffffffffffffffffffffffffffffffffffffffffffffffffffffff1916827bffffffffffffffffffffffffffffffffffffffffffffffffffffffff1916145b80611fbc5750611fbb82612a5e565b5b9050919050565b60008073ffffffffffffffffffffffffffffffffffffffff166002600084815260200190815260200160002060009054906101000a900473ffffffffffffffffffffffffffffffffffffffff1673ffffffffffffffffffffffffffffffffffffffff1614159050919050565b600033905090565b816004600083815260200190815260200160002060006101000a81548173ffffffffffffffffffffffffffffffffffffffff021916908373ffffffffffffffffffffffffffffffffffffffff160217905550808273ffffffffffffffffffffffffffffffffffffffff166120aa83611027565b73ffffffffffffffffffffffffffffffffffffffff167f8c5be1e5ebec7d5bd14f71427d1e84f3dd0314c0f7b2291e5b200ac8c7c3b92560405160405180910390a45050565b60006120fb82611fc3565b61213a576040517f08c379a000000000000000000000000000000000000000000000000000000000815260040161213190614575565b60405180910390fd5b600061214583611027565b90508073ffffffffffffffffffffffffffffffffffffffff168473ffffffffffffffffffffffffffffffffffffffff1614806121b457508373ffffffffffffffffffffffffffffffffffffffff1661219c84610a0d565b73ffffffffffffffffffffffffffffffffffffffff16145b806121c557506121c48185611d55565b5b91505092915050565b8273ffffffffffffffffffffffffffffffffffffffff166121ee82611027565b73ffffffffffffffffffffffffffffffffffffffff1614612244576040517f08c379a000000000000000000000000000000000000000000000000000000000815260040161223b906146b5565b60405180910390fd5b600073ffffffffffffffffffffffffffffffffffffffff168273ffffffffffffffffffffffffffffffffffffffff1614156122b4576040517f08c379a00000000000000000000000000000000000000000000000000000000081526004016122ab906144d5565b60405180910390fd5b6122bf838383612ac8565b6122ca600082612037565b6001600360008573ffffffffffffffffffffffffffffffffffffffff1673ffffffffffffffffffffffffffffffffffffffff168152602001908152602001600020600082825461231a9190614a49565b925050819055506001600360008473ffffffffffffffffffffffffffffffffffffffff1673ffffffffffffffffffffffffffffffffffffffff16815260200190815260200160002060008282546123719190614968565b92505081905550816002600083815260200190815260200160002060006101000a81548173ffffffffffffffffffffffffffffffffffffffff021916908373ffffffffffffffffffffffffffffffffffffffff160217905550808273ffffffffffffffffffffffffffffffffffffffff168473ffffffffffffffffffffffffffffffffffffffff167fddf252ad1be2c89b69c2b068fc378daa952ba7f163c4a11628f55a4df523b3ef60405160405180910390a4505050565b8047101561246d576040517f08c379a000000000000000000000000000000000000000000000000000000000815260040161246490614555565b60405180910390fd5b60008273ffffffffffffffffffffffffffffffffffffffff16826040516124939061437a565b60006040518083038185875af1925050503d80600081146124d0576040519150601f19603f3d011682016040523d82523d6000602084013e6124d5565b606091505b5050905080612519576040517f08c379a000000000000000000000000000000000000000000000000000000000815260040161251090614535565b60405180910390fd5b505050565b6000600a60009054906101000a900473ffffffffffffffffffffffffffffffffffffffff16905081600a60006101000a81548173ffffffffffffffffffffffffffffffffffffffff021916908373ffffffffffffffffffffffffffffffffffffffff1602179055508173ffffffffffffffffffffffffffffffffffffffff168173ffffffffffffffffffffffffffffffffffffffff167f8be0079c531659141344cd1fd0a4f28419497f9722a3daafe3b4186f6b6457e060405160405180910390a35050565b601060008154809291906125f790614b65565b9190505550612607601054611fc3565b15612647576040517f08c379a000000000000000000000000000000000000000000000000000000000815260040161263e906147f5565b60405180910390fd5b61265381601054612bdc565b50565b8173ffffffffffffffffffffffffffffffffffffffff168373ffffffffffffffffffffffffffffffffffffffff1614156126c5576040517f08c379a00000000000000000000000000000000000000000000000000000000081526004016126bc906144f5565b60405180910390fd5b80600560008573ffffffffffffffffffffffffffffffffffffffff1673ffffffffffffffffffffffffffffffffffffffff16815260200190815260200160002060008473ffffffffffffffffffffffffffffffffffffffff1673ffffffffffffffffffffffffffffffffffffffff16815260200190815260200160002060006101000a81548160ff0219169083151502179055508173ffffffffffffffffffffffffffffffffffffffff168373ffffffffffffffffffffffffffffffffffffffff167f17307eab39ab6107e8899845ad3d59bd9653f200f220920489ca2b5937696c31836040516127b69190614418565b60405180910390a3505050565b6127ce8484846121ce565b6127da84848484612bfa565b612819576040517f08c379a000000000000000000000000000000000000000000000000000000000815260040161281090614475565b60405180910390fd5b50505050565b6060600e805461282e90614b33565b80601f016020809104026020016040519081016040528092919081815260200182805461285a90614b33565b80156128a75780601f1061287c576101008083540402835291602001916128a7565b820191906000526020600020905b81548152906001019060200180831161288a57829003601f168201915b5050505050905090565b606060008214156128f9576040518060400160405280600181526020017f30000000000000000000000000000000000000000000000000000000000000008152509050612a59565b600082905060005b6000821461292b57808061291490614b65565b915050600a8261292491906149be565b9150612901565b60008167ffffffffffffffff81111561296d577f4e487b7100000000000000000000000000000000000000000000000000000000600052604160045260246000fd5b6040519080825280601f01601f19166020018201604052801561299f5781602001600182028036833780820191505090505b5090505b60008514612a52576001826129b89190614a49565b9150600a856129c79190614bae565b60306129d39190614968565b60f81b818381518110612a0f577f4e487b7100000000000000000000000000000000000000000000000000000000600052603260045260246000fd5b60200101907effffffffffffffffffffffffffffffffffffffffffffffffffffffffffffff1916908160001a905350600a85612a4b91906149be565b94506129a3565b8093505050505b919050565b60007f01ffc9a7000000000000000000000000000000000000000000000000000000007bffffffffffffffffffffffffffffffffffffffffffffffffffffffff1916827bffffffffffffffffffffffffffffffffffffffffffffffffffffffff1916149050919050565b612ad3838383612d91565b600073ffffffffffffffffffffffffffffffffffffffff168373ffffffffffffffffffffffffffffffffffffffff161415612b1657612b1181612d96565b612b55565b8173ffffffffffffffffffffffffffffffffffffffff168373ffffffffffffffffffffffffffffffffffffffff1614612b5457612b538382612ddf565b5b5b600073ffffffffffffffffffffffffffffffffffffffff168273ffffffffffffffffffffffffffffffffffffffff161415612b9857612b9381612f4c565b612bd7565b8273ffffffffffffffffffffffffffffffffffffffff168273ffffffffffffffffffffffffffffffffffffffff1614612bd657612bd5828261308f565b5b5b505050565b612bf682826040518060200160405280600081525061310e565b5050565b6000612c1b8473ffffffffffffffffffffffffffffffffffffffff16613169565b15612d84578373ffffffffffffffffffffffffffffffffffffffff1663150b7a02612c4461202f565b8786866040518563ffffffff1660e01b8152600401612c6694939291906143aa565b602060405180830381600087803b158015612c8057600080fd5b505af1925050508015612cb157506040513d601f19601f82011682018060405250810190612cae919061370b565b60015b612d34573d8060008114612ce1576040519150601f19603f3d011682016040523d82523d6000602084013e612ce6565b606091505b50600081511415612d2c576040517f08c379a0000000000000000000000000000000000000000000000000000000008152600401612d2390614475565b60405180910390fd5b805181602001fd5b63150b7a0260e01b7bffffffffffffffffffffffffffffffffffffffffffffffffffffffff1916817bffffffffffffffffffffffffffffffffffffffffffffffffffffffff191614915050612d89565b600190505b949350505050565b505050565b6008805490506009600083815260200190815260200160002081905550600881908060018154018082558091505060019003906000526020600020016000909190919091505550565b60006001612dec84611266565b612df69190614a49565b9050600060076000848152602001908152602001600020549050818114612edb576000600660008673ffffffffffffffffffffffffffffffffffffffff1673ffffffffffffffffffffffffffffffffffffffff168152602001908152602001600020600084815260200190815260200160002054905080600660008773ffffffffffffffffffffffffffffffffffffffff1673ffffffffffffffffffffffffffffffffffffffff168152602001908152602001600020600084815260200190815260200160002081905550816007600083815260200190815260200160002081905550505b6007600084815260200190815260200160002060009055600660008573ffffffffffffffffffffffffffffffffffffffff1673ffffffffffffffffffffffffffffffffffffffff16815260200190815260200160002060008381526020019081526020016000206000905550505050565b60006001600880549050612f609190614a49565b9050600060096000848152602001908152602001600020549050600060088381548110612fb6577f4e487b7100000000000000000000000000000000000000000000000000000000600052603260045260246000fd5b906000526020600020015490508060088381548110612ffe577f4e487b7100000000000000000000000000000000000000000000000000000000600052603260045260246000fd5b906000526020600020018190555081600960008381526020019081526020016000208190555060096000858152602001908152602001600020600090556008805480613073577f4e487b7100000000000000000000000000000000000000000000000000000000600052603160045260246000fd5b6001900381819060005260206000200160009055905550505050565b600061309a83611266565b905081600660008573ffffffffffffffffffffffffffffffffffffffff1673ffffffffffffffffffffffffffffffffffffffff168152602001908152602001600020600083815260200190815260200160002081905550806007600084815260200190815260200160002081905550505050565b613118838361317c565b6131256000848484612bfa565b613164576040517f08c379a000000000000000000000000000000000000000000000000000000000815260040161315b90614475565b60405180910390fd5b505050565b600080823b905060008111915050919050565b600073ffffffffffffffffffffffffffffffffffffffff168273ffffffffffffffffffffffffffffffffffffffff1614156131ec576040517f08c379a00000000000000000000000000000000000000000000000000000000081526004016131e390614635565b60405180910390fd5b6131f581611fc3565b15613235576040517f08c379a000000000000000000000000000000000000000000000000000000000815260040161322c906144b5565b60405180910390fd5b61324160008383612ac8565b6001600360008473ffffffffffffffffffffffffffffffffffffffff1673ffffffffffffffffffffffffffffffffffffffff16815260200190815260200160002060008282546132919190614968565b92505081905550816002600083815260200190815260200160002060006101000a81548173ffffffffffffffffffffffffffffffffffffffff021916908373ffffffffffffffffffffffffffffffffffffffff160217905550808273ffffffffffffffffffffffffffffffffffffffff16600073ffffffffffffffffffffffffffffffffffffffff167fddf252ad1be2c89b69c2b068fc378daa952ba7f163c4a11628f55a4df523b3ef60405160405180910390a45050565b82805461335690614b33565b90600052602060002090601f01602090048101928261337857600085556133bf565b82601f1061339157805160ff19168380011785556133bf565b828001600101855582156133bf579182015b828111156133be5782518255916020019190600101906133a3565b5b5090506133cc91906133d0565b5090565b5b808211156133e95760008160009055506001016133d1565b5090565b60006134006133fb84614881565b614850565b90508281526020810184848401111561341857600080fd5b613423848285614af1565b509392505050565b600061343e613439846148b1565b614850565b90508281526020810184848401111561345657600080fd5b613461848285614af1565b509392505050565b60008135905061347881614cac565b92915050565b60008135905061348d81614cc3565b92915050565b6000813590506134a281614cda565b92915050565b6000815190506134b781614cda565b92915050565b600082601f8301126134ce57600080fd5b81356134de8482602086016133ed565b91505092915050565b600082601f8301126134f857600080fd5b813561350884826020860161342b565b91505092915050565b60008135905061352081614cf1565b92915050565b60008151905061353581614cf1565b92915050565b60006020828403121561354d57600080fd5b600061355b84828501613469565b91505092915050565b6000806040838503121561357757600080fd5b600061358585828601613469565b925050602061359685828601613469565b9150509250929050565b6000806000606084860312156135b557600080fd5b60006135c386828701613469565b93505060206135d486828701613469565b92505060406135e586828701613511565b9150509250925092565b6000806000806080858703121561360557600080fd5b600061361387828801613469565b945050602061362487828801613469565b935050604061363587828801613511565b925050606085013567ffffffffffffffff81111561365257600080fd5b61365e878288016134bd565b91505092959194509250565b6000806040838503121561367d57600080fd5b600061368b85828601613469565b925050602061369c8582860161347e565b9150509250929050565b600080604083850312156136b957600080fd5b60006136c785828601613469565b92505060206136d885828601613511565b9150509250929050565b6000602082840312156136f457600080fd5b600061370284828501613493565b91505092915050565b60006020828403121561371d57600080fd5b600061372b848285016134a8565b91505092915050565b60006020828403121561374657600080fd5b600082013567ffffffffffffffff81111561376057600080fd5b61376c848285016134e7565b91505092915050565b60006020828403121561378757600080fd5b600061379584828501613511565b91505092915050565b6000602082840312156137b057600080fd5b60006137be84828501613526565b91505092915050565b60006137d38383614338565b60208301905092915050565b6137e881614a7d565b82525050565b60006137f9826148f1565b613803818561491f565b935061380e836148e1565b8060005b8381101561383f57815161382688826137c7565b975061383183614912565b925050600181019050613812565b5085935050505092915050565b61385581614a8f565b82525050565b6000613866826148fc565b6138708185614930565b9350613880818560208601614b00565b61388981614c9b565b840191505092915050565b600061389f82614907565b6138a9818561494c565b93506138b9818560208601614b00565b6138c281614c9b565b840191505092915050565b60006138d882614907565b6138e2818561495d565b93506138f2818560208601614b00565b80840191505092915050565b600061390b602b8361494c565b91507f455243373231456e756d657261626c653a206f776e657220696e646578206f7560008301527f74206f6620626f756e64730000000000000000000000000000000000000000006020830152604082019050919050565b600061397160328361494c565b91507f4552433732313a207472616e7366657220746f206e6f6e20455243373231526560008301527f63656976657220696d706c656d656e74657200000000000000000000000000006020830152604082019050919050565b60006139d760268361494c565b91507f4f776e61626c653a206e6577206f776e657220697320746865207a65726f206160008301527f64647265737300000000000000000000000000000000000000000000000000006020830152604082019050919050565b6000613a3d601c8361494c565b91507f4552433732313a20746f6b656e20616c7265616479206d696e746564000000006000830152602082019050919050565b6000613a7d60248361494c565b91507f4552433732313a207472616e7366657220746f20746865207a65726f2061646460008301527f72657373000000000000000000000000000000000000000000000000000000006020830152604082019050919050565b6000613ae360198361494c565b91507f4552433732313a20617070726f766520746f2063616c6c6572000000000000006000830152602082019050919050565b6000613b2360148361494c565b91507f496e73756666696369656e742062616c616e63650000000000000000000000006000830152602082019050919050565b6000613b63603a8361494c565b91507f416464726573733a20756e61626c6520746f2073656e642076616c75652c207260008301527f6563697069656e74206d617920686176652072657665727465640000000000006020830152604082019050919050565b6000613bc9601d8361494c565b91507f416464726573733a20696e73756666696369656e742062616c616e63650000006000830152602082019050919050565b6000613c09602c8361494c565b91507f4552433732313a206f70657261746f7220717565727920666f72206e6f6e657860008301527f697374656e7420746f6b656e00000000000000000000000000000000000000006020830152604082019050919050565b6000613c6f60128361494c565b91507f73616c65206973206e6f742061637469766500000000000000000000000000006000830152602082019050919050565b6000613caf60118361494c565b91507f6d6178203120636172206174206f6e63650000000000000000000000000000006000830152602082019050919050565b6000613cef60388361494c565b91507f4552433732313a20617070726f76652063616c6c6572206973206e6f74206f7760008301527f6e6572206e6f7220617070726f76656420666f7220616c6c00000000000000006020830152604082019050919050565b6000613d55602a8361494c565b91507f4552433732313a2062616c616e636520717565727920666f7220746865207a6560008301527f726f2061646472657373000000000000000000000000000000000000000000006020830152604082019050919050565b6000613dbb60298361494c565b91507f4552433732313a206f776e657220717565727920666f72206e6f6e657869737460008301527f656e7420746f6b656e00000000000000000000000000000000000000000000006020830152604082019050919050565b6000613e2160208361494c565b91507f4552433732313a206d696e7420746f20746865207a65726f20616464726573736000830152602082019050919050565b6000613e61602c8361494c565b91507f4552433732313a20617070726f76656420717565727920666f72206e6f6e657860008301527f697374656e7420746f6b656e00000000000000000000000000000000000000006020830152604082019050919050565b6000613ec760208361494c565b91507f4f776e61626c653a2063616c6c6572206973206e6f7420746865206f776e65726000830152602082019050919050565b6000613f07601c8361494c565b91507f796f7520617265206e6f74206f6e207468652077686974656c697374000000006000830152602082019050919050565b6000613f4760298361494c565b91507f4552433732313a207472616e73666572206f6620746f6b656e2074686174206960008301527f73206e6f74206f776e00000000000000000000000000000000000000000000006020830152604082019050919050565b6000613fad602f8361494c565b91507f4552433732314d657461646174613a2055524920717565727920666f72206e6f60008301527f6e6578697374656e7420746f6b656e00000000000000000000000000000000006020830152604082019050919050565b600061401360178361494c565b91507f67726561746572207468616e206d617820737570706c790000000000000000006000830152602082019050919050565b600061405360218361494c565b91507f4552433732313a20617070726f76616c20746f2063757272656e74206f776e6560008301527f72000000000000000000000000000000000000000000000000000000000000006020830152604082019050919050565b60006140b960198361494c565b91507f65786163742076616c756520696e20455448206e6565646564000000000000006000830152602082019050919050565b60006140f9600d8361494c565b91507f6d696e696d756d203120636172000000000000000000000000000000000000006000830152602082019050919050565b600061413960268361494c565b91507f796f752063616e206d696e74206f6e6c79206f6e6520647572696e672077686960008301527f74656c69737400000000000000000000000000000000000000000000000000006020830152604082019050919050565b600061419f600083614941565b9150600082019050919050565b60006141b960318361494c565b91507f4552433732313a207472616e736665722063616c6c6572206973206e6f74206f60008301527f776e6572206e6f7220617070726f7665640000000000000000000000000000006020830152604082019050919050565b600061421f60118361494c565b91507f6d6178203520636172206174206f6e63650000000000000000000000000000006000830152602082019050919050565b600061425f602c8361494c565b91507f455243373231456e756d657261626c653a20676c6f62616c20696e646578206f60008301527f7574206f6620626f756e647300000000000000000000000000000000000000006020830152604082019050919050565b60006142c560198361494c565b91507f54686520746f6b656e20616c7265616479206578697374732e000000000000006000830152602082019050919050565b6000614305601f8361494c565b91507f5265656e7472616e637947756172643a207265656e7472616e742063616c6c006000830152602082019050919050565b61434181614ae7565b82525050565b61435081614ae7565b82525050565b600061436282856138cd565b915061436e82846138cd565b91508190509392505050565b600061438582614192565b9150819050919050565b60006020820190506143a460008301846137df565b92915050565b60006080820190506143bf60008301876137df565b6143cc60208301866137df565b6143d96040830185614347565b81810360608301526143eb818461385b565b905095945050505050565b6000602082019050818103600083015261441081846137ee565b905092915050565b600060208201905061442d600083018461384c565b92915050565b6000602082019050818103600083015261444d8184613894565b905092915050565b6000602082019050818103600083015261446e816138fe565b9050919050565b6000602082019050818103600083015261448e81613964565b9050919050565b600060208201905081810360008301526144ae816139ca565b9050919050565b600060208201905081810360008301526144ce81613a30565b9050919050565b600060208201905081810360008301526144ee81613a70565b9050919050565b6000602082019050818103600083015261450e81613ad6565b9050919050565b6000602082019050818103600083015261452e81613b16565b9050919050565b6000602082019050818103600083015261454e81613b56565b9050919050565b6000602082019050818103600083015261456e81613bbc565b9050919050565b6000602082019050818103600083015261458e81613bfc565b9050919050565b600060208201905081810360008301526145ae81613c62565b9050919050565b600060208201905081810360008301526145ce81613ca2565b9050919050565b600060208201905081810360008301526145ee81613ce2565b9050919050565b6000602082019050818103600083015261460e81613d48565b9050919050565b6000602082019050818103600083015261462e81613dae565b9050919050565b6000602082019050818103600083015261464e81613e14565b9050919050565b6000602082019050818103600083015261466e81613e54565b9050919050565b6000602082019050818103600083015261468e81613eba565b9050919050565b600060208201905081810360008301526146ae81613efa565b9050919050565b600060208201905081810360008301526146ce81613f3a565b9050919050565b600060208201905081810360008301526146ee81613fa0565b9050919050565b6000602082019050818103600083015261470e81614006565b9050919050565b6000602082019050818103600083015261472e81614046565b9050919050565b6000602082019050818103600083015261474e816140ac565b9050919050565b6000602082019050818103600083015261476e816140ec565b9050919050565b6000602082019050818103600083015261478e8161412c565b9050919050565b600060208201905081810360008301526147ae816141ac565b9050919050565b600060208201905081810360008301526147ce81614212565b9050919050565b600060208201905081810360008301526147ee81614252565b9050919050565b6000602082019050818103600083015261480e816142b8565b9050919050565b6000602082019050818103600083015261482e816142f8565b9050919050565b600060208201905061484a6000830184614347565b92915050565b6000604051905081810181811067ffffffffffffffff8211171561487757614876614c6c565b5b8060405250919050565b600067ffffffffffffffff82111561489c5761489b614c6c565b5b601f19601f8301169050602081019050919050565b600067ffffffffffffffff8211156148cc576148cb614c6c565b5b601f19601f8301169050602081019050919050565b6000819050602082019050919050565b600081519050919050565b600081519050919050565b600081519050919050565b6000602082019050919050565b600082825260208201905092915050565b600082825260208201905092915050565b600081905092915050565b600082825260208201905092915050565b600081905092915050565b600061497382614ae7565b915061497e83614ae7565b9250827fffffffffffffffffffffffffffffffffffffffffffffffffffffffffffffffff038211156149b3576149b2614bdf565b5b828201905092915050565b60006149c982614ae7565b91506149d483614ae7565b9250826149e4576149e3614c0e565b5b828204905092915050565b60006149fa82614ae7565b9150614a0583614ae7565b9250817fffffffffffffffffffffffffffffffffffffffffffffffffffffffffffffffff0483118215151615614a3e57614a3d614bdf565b5b828202905092915050565b6000614a5482614ae7565b9150614a5f83614ae7565b925082821015614a7257614a71614bdf565b5b828203905092915050565b6000614a8882614ac7565b9050919050565b60008115159050919050565b60007fffffffff0000000000000000000000000000000000000000000000000000000082169050919050565b600073ffffffffffffffffffffffffffffffffffffffff82169050919050565b6000819050919050565b82818337600083830152505050565b60005b83811015614b1e578082015181840152602081019050614b03565b83811115614b2d576000848401525b50505050565b60006002820490506001821680614b4b57607f821691505b60208210811415614b5f57614b5e614c3d565b5b50919050565b6000614b7082614ae7565b91507fffffffffffffffffffffffffffffffffffffffffffffffffffffffffffffffff821415614ba357614ba2614bdf565b5b600182019050919050565b6000614bb982614ae7565b9150614bc483614ae7565b925082614bd457614bd3614c0e565b5b828206905092915050565b7f4e487b7100000000000000000000000000000000000000000000000000000000600052601160045260246000fd5b7f4e487b7100000000000000000000000000000000000000000000000000000000600052601260045260246000fd5b7f4e487b7100000000000000000000000000000000000000000000000000000000600052602260045260246000fd5b7f4e487b7100000000000000000000000000000000000000000000000000000000600052604160045260246000fd5b6000601f19601f8301169050919050565b614cb581614a7d565b8114614cc057600080fd5b50565b614ccc81614a8f565b8114614cd757600080fd5b50565b614ce381614a9b565b8114614cee57600080fd5b50565b614cfa81614ae7565b8114614d0557600080fd5b5056fea2646970667358221220361ab237b491d98fe781ba573e0f4c08e58503f7fcc5be8c82a264780998f86864736f6c63430008000033",
  "linkReferences": {},
  "deployedLinkReferences": {}
}